:020000040000fa
:080000000002040000000000f2
:020000040000fa
:10000800aa020000aa020000aa020000aa02000038
:10001800aa020000aa020000aa020000aa02000028
:10002800aa020000aa020000aa0200009c490000df
:10003800aa020000aa020000aa020000984a0000d2
:10004800aa020000aa020000aa020000aa020000f8
:10005800aa020000aa020000aa020000aa020000e8
:10006800aa020000aa020000aa020000aa020000d8
:10007800aa020000aa020000aa020000aa020000c8
:10008800aa020000aa020000aa020000f44600002a
:10009800aa020000aa020000aa020000aa020000a8
:1000a800aa020000aa020000aa020000aa02000098
:1000b800aa020000aa020000aa020000aa02000088
:1000c800aa020000aa020000aa020000aa02000078
:1000d800aa020000aa020000aa020000aa02000068
:1000e800aa020000aa020000aa020000aa02000058
:1000f800aa020000aa020000aa020000aa02000048
:10010800aa020000aa020000aa020000aa02000037
:10011800aa020000aa020000aa020000aa02000027
:10012800aa020000aa020000aa020000aa02000017
:10013800aa020000aa020000aa020000aa02000007
:10014800aa020000aa020000aa020000aa020000f7
:10015800aa020000aa020000aa020000aa020000e7
:10016800aa020000aa020000aa020000aa020000d7
:10017800aa020000aa020000aa020000aa020000c7
:10018800aa020000aa020000aa020000aa020000b7
:10019800aa020000aa020000aa020000aa020000a7
:1001a800aa020000aa020000aa020000aa02000097
:1001b800aa020000aa020000aa020000aa02000087
:1001c800aa020000aa020000aa020000aa02000077
:1001d800aa020000aa020000aa020000aa02000067
:1001e800aa020000aa020000aa020000aa02000057
:0801f800aa020000aa020000a7
:020000040000fa
:10020800aa020000aa020000aa020000aa02000036
:10021800aa020000aa020000aa020000aa02000026
:10022800aa020000aa020000aa0200009c490000dd
:10023800aa020000aa020000aa020000984a0000d0
:10024800aa020000aa020000aa020000aa020000f6
:10025800aa020000aa020000aa020000aa020000e6
:10026800aa020000aa020000aa020000aa020000d6
:10027800aa020000aa020000aa020000aa020000c6
:10028800aa020000aa020000aa020000f446000028
:10029800aa020000aa020000aa020000aa020000a6
:1002a800aa020000aa020000aa020000aa02000096
:1002b800aa020000aa020000aa020000aa02000086
:1002c800aa020000aa020000aa020000aa02000076
:1002d800aa020000aa020000aa020000aa02000066
:1002e800aa020000aa020000aa020000aa02000056
:1002f800aa020000aa020000aa020000aa02000046
:10030800aa020000aa020000aa020000aa02000035
:10031800aa020000aa020000aa020000aa02000025
:10032800aa020000aa020000aa020000aa02000015
:10033800aa020000aa020000aa020000aa02000005
:10034800aa020000aa020000aa020000aa020000f5
:10035800aa020000aa020000aa020000aa020000e5
:10036800aa020000aa020000aa020000aa020000d5
:10037800aa020000aa020000aa020000aa020000c5
:10038800aa020000aa020000aa020000aa020000b5
:10039800aa020000aa020000aa020000aa020000a5
:1003a800aa020000aa020000aa020000aa02000095
:1003b800aa020000aa020000aa020000aa02000085
:1003c800aa020000aa020000aa020000aa02000075
:1003d800aa020000aa020000aa020000aa02000065
:1003e800aa020000aa020000aa020000aa02000055
:0803f800aa020000aa020000a5
:020000040000fa
:100400008fd521000e7f22000e0188000000000021
:10041000000020000000e000020032000001200087
:10042000200288000c000700c0c224000100200048
:1004300011000700000020000000e0000200320070
:100440000000020000000000de4202000000000088
:100450000040da000000fe004440a90040482200ad
:100460000000e0000300320000002000a00188002e
:100470004440a80000000600910188008000780038
:100480000000eb0015003700e280400032a0b4000d
:100490009101ba00e280400032a0b4009102ba009b
:1004a000e280400032a0b4000002eb00472bde00e7
:1004b000f507b200602ce10004003a000059eb009f
:1004c0008301e900fdff3e00040037006128e100e0
:1004d000010032000082eb00040007001101ba00a5
:1004e0000200e000e8ff3a00000006003159ba00bf
:1004f0008301e9000c0032002159ba008301e900b0
:10050000080032000400e00003003a00e2804000ee
:1005100032a0b400f5ff370011d9ba008301e90019
:10052000faff3a008100e800e180400032a0b40008
:1005300000000600000000000000000000000000b5
:1005400000000000000000000000000000000000ab
:10055000000000000040da000000fe006022b80049
:10056000060220000000d0008180d2000482d20068
:100570008582d2000000a0000202520083825a004d
:10058000030031000202420083824a000000a10001
:100590000603e900f3ff3a000000060000027800bd
:1005a00002003700315a78000201e900e00f5100e3
:1005b000fcff3a000000060000027800808f500027
:1005c0000800310082824000808f52000500360012
:1005d00002024000456278000201e900fdff3a0096
:1005e00000000600e00f510003003200315a78008d
:1005f0000201e900fbff370000000600000278005e
:1006000002003700015a78000201e900e00f5100b2
:10061000fcff3a000000060015c0b30001002000f6
:1006200064d5210090ea8800a1ea8800054a780094
:100630000000060064d521008042eb0094cf120038
:1006400002003a0010002000f3ff070090ea80004b
:10065000a1ea8000d2e62400631c240050000700b9
:1006600094032300050020000002420081824a001a
:1006700094ea8800a5ea88000500780000f0a1004f
:1006800000000600000278000400780000027800f4
:10069000b442780081cf520003003200e0cf520014
:1006a000f9ff3a000000eb0000000600b0427800bd
:1006b00031c2520002003a00e0cf5200fbff3a0084
:1006c0000400fb000000060000027800b142780040
:1006d000055a7800e0cf5200fcff3a000000060007
:1006e000000278008042eb00b4cf1200fdff3a0018
:1006f0000080ea0000004200000006000b00370006
:1007000030427800e04f5200030032000201e9005d
:10071000b14f5200050032000480fb009542780082
:100720008582fb0005005000000006008102780071
:10073000e00f5100f2ff3a000200780000000600ce
:10074000889fbe000004be000c003700090078003e
:10075000e3ff0700890078000001780008007800b6
:10076000e6ff0700e00f50000a0032000800e80032
:100770009900fb00c3ff070000047800e00f54005d
:10078000040032000042eb00984f1200efff3a00e5
:100790000004eb00080078004f04be0000000600d3
:1007a000020ab900001bb9000200b8008100420033
:0807b000810043000000060077
:020000040000fa
:1007b80000000000ff2000001b6e00000520000064
:1007c8002fec0000a110000037ed0000a110000080
:1007d8007f4a00003210000004eb0000a120000056
:1007e8003f1000000480000000e00000a289000023
:1007f800fe650000a26500004a00000012590000d2
:1008080020690000f6290000d995000000ee0000dc
:10081800f107000031000000102f000000ee00007a
:100828004a010000100400006e08000010160000c5
:10083800f715000060010000f0180000adc90000c5
:10084800fa1e0000f5650000a0f30000f165000045
:100858004e050000105f0000813500004f000000c9
:1008680070ff00007aff000085300000106500006e
:100878008144000080f400007a010000f155000076
:10088800206d0000a24d0000fa330000a24d0000c8
:10089800f2650000f1290000dd950000f229000052
:1008a800d6950000a2890000fa55000000ee00006d
:1008b800201b00006d0000006c00000062020000b8
:1008c800f21800006140000020d500008760000099
:1008d8006180000020d5000084e0000081e0000075
:1008e8008164000020a700004c000000112d0000ca
:1008f8004318000010bb0000210f000010990000f1
:100908006e000000210100004e01000021010000de
:100918002101000083e0000083230000830e000013
:10092800830e000000ee000020a70000431800001e
:1009380010cf000020e500007e040000210f000019
:100948007eff00003e00000010c500001099000066
:10095800a2860000f755000010a3000020e5000063
:100968007e0500008e0e00008e0e000086e000005e
:10097800861700008606000000ee00006e000000ea
:1009880021010000210100002101000021010000d7
:1009980000ee00006d080000a2b50000fc1e00007b
:1009a800f06500008b0000009c5000006cff000008
:1009b8007c0100004d00000010f100007dff0000e8
:1009c8008e0e00008b0e00008ef1000000ee00007d
:1009d800431000001119000033140000111b00001f
:1009e8007801000079010000a2950000f31e0000c4
:1009f800d6740000760400005610000000ee0000d7
:100a0800864500007704000000ee0000a286000082
:100a1800f76500006a000000202f00006b0100004d
:100a2800a2940000f56500009890000012170000dd
:100a3800e1a10000123d0000e0a100001241000009
:100a4800e3a1000012450000e4a1000012490000e3
:100a5800e5a1000012290000e29e00001135000007
:100a68004c000000113500006b0000007cff000006
:100a7800a2ad0000d67400007dff00004dff00000d
:100a88006d380000a24d0000fd1e0000f06500005a
:100a98008a000000f415000081a20000a294000062
:100aa800f11e0000f56500004b00000021f3000076
:100ab80080600000817000008044000081540000c4
:100ac8004b00000011930000a23b00002207000029
:100ad8004e01000011330000a01a00002207000098
:100ae8004e00000011c300008200000083100000c7
:100af80082440000835400004b00000011e5000010
:100b0800a01a0000220f00004e010000113300005f
:100b18007a800000a2a500002207000088e50000f6
:100b2800220f000088e40000a2b10000d0140000e9
:100b3800fb180000d23400004b00000011eb00004d
:100b48003c3900007c01000080a00000a24d00009c
:100b5800fd1e00007d0100004d3900006d00000001
:100b6800f0550000a2ad0000d674000086440000d5
:100b780087540000d6740000113300008a0e00006c
:100b88004f01000011b10000a2860000f7650000c7
:100b9800a2ad000011dd0000a2860000f75500009c
:100ba80086440000875400008644000087540000f3
:100bb80085b7000084b70000f555000000ee00007e
:100bc800d01200008ef00000d012000000ee0000ed
:100bd800d23200008ef00000d232000000ee000099
:100be800f318000060320000f0150000202f00000c
:100bf800201b00004a32000010020000203f0000c5
:100c080010810000f1180000601e0000f0150000bf
:100c1800202f0000e59e0000113500003a0000007a
:100c2800107f000010000000200000006a02000091
:100c3800117100006a040000117100006a010000cf
:100c4800117100006a0300001171000000c100006a
:100c5800d5610000f11e000075080000355800003d
:100c6800124f0000652800008315000033fe0000c5
:100c7800124d00006a01000010270000fe790000f4
:100c880099e70000c7db00000ecd0000f336000036
:100c98006cdb00001ccd0000e33600006cdb0000bc
:100ca80038cd0000b336000067db000070cd0000cf
:100cb8009b370000c0db0000e079000081e60000ff
:100cc800079e0000fe0100008006000000000000f2
:100cd8000f070000020200000003000002040000e9
:100ce8000508000000fc00000004000000000000ef
:100cf80000000000f0f00000f0f0000000400000ec
:100d080020000000f0d00000b0f0000060f000000b
:100d1800f0600000f090000090f000006e0000000d
:100d280088c200009018000053410000842a000087
:100d380015600000e85200008c15000051140000f6
:100d480040890000808a00004443000065280000b4
:100d580058360000d1210000519100004364000082
:100d680001800000c540000022600000598c00008e
:100d780003b00000301500005d810000285000001d
:100d88005d810000aaa00000bb0000004828000008
:100d98002ec0000088520000282d00002882000084
:100da80050a500002882000000c00000508c000000
:100db800005c00008245000020ac000006460000f0
:100dc8000a950000a2c100005285000060cb000017
:100dd8004a210000152800008ab3000000290000fd
:100de80042820000bb6000000a1400000598000061
:100df800023c00009e830000c5200000e84c000073
:100e08001190000098140000010a0000502600000c
:100e1800052d0000ad0a0000213000002858000010
:100e28000d10000098140000b46900004b15000074
:100e38000a30000016060000a456000006800000d4
:100e4800200b0000036000003405000081a10000b1
:100e58006b68000048c00000d0040000016000007a
:100e6800717000008c8200004461000008110000cd
:100e78001822000035410000823000001a450000a9
:100e8800854000005980000014a10000556600004c
:100e9800000a00005a280000cc000000b429000015
:100ea8002245000042820000c15200009418000050
:100eb8002aa200008c1d000000600000f120000044
:100ec8006789000002a30000b0220000c8ae00003d
:100ed800c0a800000bb4000006d100007604000092
:100ee8004a2e0000ca890000488900004682000096
:100ef800021500002880000094280000202000002f
:100f0800a02000004540000078810000c442000095
:100f180026020000a892000029680000a016000020
:100f280004a1000041500000154800008d55000044
:100f3800282a00006c8900004a5300006c880000d1
:100f480002bb0000644b000044760000c882000029
:100f5800a444000055000000bb05000058420000f2
:100f6800117000004028000014a20000095200007f
:100f780088500000410a000050400000154a000057
:100f8800882a00008b2300004a50000050140000fb
:100f9800028d0000404500000280000052940000cd
:100fa800890400005418000013040000604c00007d
:100fb80011980000982300003130000046620000bc
:100fc80060910000409c000083440000e0c80000dd
:100fd8006d9800001444000036cc00000981000020
:100fe800633000002414000036cc000009450000de
:100ff8000db30000015400008a40000052da0000de
:101008002c06000022140000a44c000006940000e6
:101018000405000090a100004028000052260000ae
:101028005a52000023010000604c000016280000fe
:10103800be15000008dc00008ab00000340500007e
:101048002d020000d0a5000036ca000016d400000a
:1010580002830000b652000080960000968e0000c1
:10106800d95400000428000003b60000580a000004
:101078005294000076ca00000112000015db00003f
:101088002a200000852800003b65000005120000aa
:10109800d29500007653000064420000c09c000016
:1010a800a6c8000096d20000da3a000024300000fa
:1010b800347200000091000051c8000003070000ce
:1010c800720100001b000000ae8300002ac100006e
:1010d8009544000018220000a0ad0000181a000076
:1010e80081200000506000004a140000b54500004f
:1010f80081200000d5800000b02400004a5a00007a
:1011080022b00000140a0000209400008a80000029
:10111800216800008111000014b0000055c00000d3
:101128000a840000576300006455000081bb00007a
:10113800673000008661000061110000308c0000fb
:101148008e0c0000291100002250000014440000f9
:10115800294a000054110000102c000094050000da
:1011680015110000a52a0000bb6500001029000029
:1011780041760000ca2b00006d280000bb65000006
:1011880080a200008bb6000089000000a2ed0000dc
:10119800900800008c050000582300000160000042
:1011a800d13000008e0200002b0500005014000012
:1011b80022400000ac050000040100005428000093
:1011c800d104000036c20000895900002a880000b6
:1011d800e70a000008d00000403100008528000020
:1011e800051100001ce10000405000005a530000a7
:1011f800185200008808000035ce000015280000ad
:10120800502800005db000008d220000400a000058
:10121800088200000116000015400000bd81000092
:10122800c4e00000313800000b0100006029000014
:1012380064a30000016d000010220000a22b000032
:101248003128000008810000662500001111000007
:10125800598a000002a800000aa20000a355000055
:101268000680000085040000442900006d04000089
:10127800aa22000005280000ada2000024460000b4
:101288000340000046020000a8a8000008c00000b3
:10129800d80a0000030300008a0300000a55000072
:1012a80000bc000002290000054000004182000047
:1012b800a1400000606a00008d0100005401000098
:1012c8000a0b000040400000104900000a250000f9
:1012d80040100000605400005514000055ab000099
:1012e80001440000acc200008808000085db000053
:1012f800fc5400008883000030a00000208000001b
:10130800a913000004b40000106000006830000059
:1013180016070000120100008444000040a90000e4
:1013280088c10000501600000880000020aa0000b4
:10133800094100005410000042d200008150000012
:1013480056410000a00a000008280000528a000048
:101358002505000014c80000835600008391000092
:10136800502e0000cb900000401d0000f6c8000081
:1013780025a3000030a00000845400001060000085
:10138800caa000009b0200002d02000076040000a5
:1013980006040000ed020000604e0000c08200005c
:1013a800a8110000304100004184000020820000a4
:1013b8000a080000444500000551000050a1000043
:1013c8001110000051280000504a00000a4900008e
:1013d8004280000081120000148900008020000073
:1013e8000c1a0000248e000080c50000e088000070
:1013f8006040000060880000e0090000040200006e
:10140800222e0000c8aa00000a090000b2b000009d
:10141800155200008ed800000a2100004500000087
:10142800d8500000514800008d5a00009440000038
:1014380044140000401a00005a220000085100001d
:10144800104a0000a20c00002d04000022e0000059
:1014580082ac000015540000be080000942500006e
:10146800024500005824000044a000003044000059
:101478000500000055800000a5100000500600007f
:10148800029400004222000030150000285000009d
:10149800046000002a5200008a880000c05400003e
:1014a8004282000023010000511a0000808c0000d5
:1014b80005450000404400008985000005510000f2
:1014c800198100004028000005030000674400005f
:1014d80068540000a04c00000b03000041490000c4
:1014e800818f000080be0000008b00004062000079
:1014f8003045000050600000281400001904000066
:10150800122700005541000054400000144100001b
:10151800a6ca0000250a000008200000e512000005
:101528008301000069b20000882a00002c05000031
:10153800ca2a000008200000d3650000100400003b
:10154800aaa00000e51a0000050a00000f360000f6
:10155800500a00002528000083a20000255400003e
:1015680001e60000c808000005a20000b302000060
:10157800030200005224000004500000aa8a000060
:10158800c09800001b020000606a0000a02800004c
:10159800aa20000080a3000022800000202500006f
:1015a800b4a100006a02000008a5000004040000bd
:1015b8001142000091400000b69500000440000070
:1015c8005026000004440000047600003220000089
:1015d800222e0000d9220000250700006cc0000060
:1015e800540800008c0a000022be00008940000058
:1015f80055400000100800009844000080a8000032
:101608002141000001420000850a00002528000051
:101618002b4a00000248000094010000429100009b
:101628007151000001980000d2a200002824000097
:10163800c482000022050000992800008894000058
:1016480066030000641100000a5500005aaa000051
:10165800544a000002a5000002820000a580000094
:10166800d28500000054000089140000888b000017
:10167800056000006c7c00009e00000089c200002c
:101688001041000056030000112b00004414000014
:1016980001d800004104000004010000d84a0000fd
:1016a800d10a0000aa380000180b0000410400000d
:1016b80076020000a0940000011d0000a441000073
:1016c800a34100000476000012b000001a82000056
:1016d8003b08000036b4000010570000612a0000e3
:1016e8000856000082ec0000208200000202000080
:1016f800b85500000888000008aa00000aa00000e9
:1017080044400000be8d00008033000030650000ba
:1017180051990000adc80000245e0000880a00004e
:10172800c0a80000580d0000151500004042000038
:10173800882c000009010000411500000a82000001
:10174800282a00002a510000aa8000002a4400002c
:101758004288000020a9000011000000a2880000b3
:1017680022890000410a000014a000002214000091
:101778002b6d000004040000410b000002880000eb
:10178800892200008208000030180000d0be000046
:1017980055850000a11a00000410000036660000fc
:1017a80024100000448800009b64000016a000007c
:1017b80013220000080b00006241000011280000fd
:1017c800c0620000520a0000d12800001120000069
:1017d80050a300006d5800001ac0000090060000d9
:1017e800b554000055190000440100001100000024
:1017f800b0140000044400000516000002aa00000e
:1018080044ac000048a20000c11000000408000019
:10181800b8040000447a0000227000004410000060
:1018280088800000a0830000b654000042a0000099
:10183800ed810000128d0000a6d80000110a0000fa
:1018480083b6000032200000258b0000581d0000e0
:1018580028a800002168000080910000205b00009b
:10186800646000004c09000060510000408e0000d8
:1018780023a00000ed800000401000001566000065
:1018880010aa00002345000098900000a0800000e6
:101898002cc400008208000084580000a14a0000ff
:1018a8000830000016ad000016a80000a050000087
:1018b80004a00000088200008a8800002d110000a2
:1018c800296c000006850000044a0000015600004b
:1018d80091220000261200000b0800008900000079
:1018e800ac820000c460000091100000181a0000cb
:1018f80094280000454a000014a20000e581000079
:10190800da0b0000b2840000485700006151000063
:1019180004010000db0a000050100000076c000002
:101928002c8300004515000076d1000010a50000aa
:10193800a0bb00002028000052850000db2000002a
:1019480009680000510c000080200000528200004d
:10195800a80400004806000011110000008e0000d5
:1019680088c20000901600001294000022b0000007
:101978001511000081c50000040a0000d6400000cf
:10198800405000006054000040a2000082a4000003
:101998005454000014db0000cc2200002a8a000006
:1019a8007df60000fb880000a9620000c2d100009b
:1019b800428100004280000050500000404000007a
:1019c800404100008f8000009e810000c5e00000bb
:1019d800880c00000522000020c0000069440000b7
:1019e800408800009544000051280000a022000013
:1019f8009411000028490000688b00006d11000058
:101a08004540000045000000451000001522000078
:101a180035140000603400001981000010540000e3
:101a2800528c0000c0a9000040a2000003b50000cd
:101a3800c2820000944100006602000024040000f5
:101a48004b6c0000a01100001008000088bd0000c9
:101a58000558000052110000580a00008282000058
:101a68000301000042a5000092800000aa0d0000ba
:101a78000a0900004a820000a85500001a58000010
:101a88000a820000088100006d050000280500009a
:101a98000aa4000044a500001a820000080a0000f9
:101aa8000a820000b440000010660000080a000026
:101ab80000ab0000312a0000c099000081560000e8
:101ac8000aed000096100000ed9800004c4400005c
:101ad800a88100002ac0000062200000802c0000bd
:101ae80006a0000029410000454600004a510000b8
:101af80028220000a8a000005419000081a50000b9
:101b080010660000040a00008330000005a20000ef
:101b18008ed800004a02000044a90000418100005c
:101b2800202b000002680000ac0d0000060a00002f
:101b3800aaa700008d400000541500000281000093
:101b480048880000a5a2000081440000014b000065
:101b5800689100001011000028a8000020850000ee
:101b680014a9000050050000036400008a6c0000fe
:101b78005191000066140000a8ac0000c085000068
:101b88001576000050080000c8a9000022b0000027
:101b980016600000014000001ce4000028a00000be
:101ba800b3020000248a000024c00000820a00005a
:101bb800c05a00002d150000150a0000008d000015
:101bc8000a520000a088000085280000a22000001a
:101bd800a828000022000000a28a0000214400007a
:101be80028200000ad2800000a8000002111000014
:101bf800812a000080be00008c1100003010000017
:101c080004560000605000002d400000902600009f
:101c1800150100001501000026050000451500000b
:101c280004260000044a0000580a000022a8000008
:101c3800852a000083020000888800002a880000a6
:101c4800a2820000340500001005000028500000a2
:101c5800451000001512000094010000101100004a
:101c68000a280000a244000044b6000003680000ef
:101c78003015000014540000a0c0000090040000bb
:101c8800401800001448000089000000be840000cd
:101c980044420000221100002010000040550000be
:101ca8000a520000882500000145000014140000b5
:101cb80040a5000080d00000a22a0000505100007a
:101cc800602a0000091100002236000088b60000d2
:101cd80022480000b01400004a0a0000d54a00005b
:101ce8000a25000004050000415000004b4a00008e
:101cf800205a0000200c00000501000041000000ef
:101d080089ec0000655800001b320000b046000056
:101d18006560000091700000ae8b0000c1190000e2
:101d280088080000b4c40000020a000002ec0000a9
:101d3800a94000002c05000076c50000288000009e
:101d4800a02e0000d9b100001004000015400000ca
:101d5800101a00000d10000042d20000942a000062
:101d680082080000501a0000d168000082a200001a
:101d7800880200008202000014a2000091200000e6
:101d8800100a0000141800001a800000880c0000d7
:101d9800122300002446000010a8000066810000fd
:101da8002a91000032440000603400001102000053
:101db800a95100006bb6000044120000ed8100003c
:101dc8000471000091440000046800008d0a0000be
:101dd8000088000044c5000050be000084c4000014
:101de80088cc0000c0a800000b0100005981000049
:101df80042d500000a480000b3020000c0ad000050
:101e08002a1300000285000014b4000044db00001f
:101e1800285100004a0800004c0a000091110000f7
:101e280051740000440a00001450000030290000da
:101e380055040000888a0000a0500000181a00000d
:101e480008510000a52a0000a08200005b52000093
:101e5800808a0000a080000021680000c0e2000025
:101e6800402b00000888000080bc0000008c0000a7
:101e78004058000032800000208d0000a5040000ba
:101e880001a300005052000044050000144a00005d
:101e9800228000008146000082200000080900001e
:101ea80040440000014a00005014000040100000a7
:101eb800414200008802000000a50000a89100002f
:101ec8002b40000040460000604200002839000016
:101ed800db0b00000466000000180000233000003f
:101ee80000c1000022a00000ae830000c461000011
:101ef8002a020000c1d6000002c10000942d000093
:101f0800060a0000a5a10000460a0000940200008d
:101f1800882a0000808100006912000008a00000e3
:101f2800a00b0000a1160000d9170000244c0000e7
:101f380050150000c9130000c34a0000acce0000d1
:101f480020110000b0a30000095000005852000002
:101f5800a88d000080c50000206a0000b02800009d
:101f6800902000000a5200008122000008a2000010
:101f7800d6940000b112000062420000d150000067
:101f8800262400001014000049890000a141000027
:101f980046cc000045a9000045010000515a000048
:101fa80014880000850a00001428000080850000bd
:101fb8000a14000028810000120200002504000015
:101fc800888000006e82000044e00000911000004c
:101fd80041560000028000008140000010550000ba
:101fe8001b4500001411000060480000828a0000b0
:101ff800a0a900005a140000282e0000d8010000f3
:1020080014100000176c00008048000022a2000095
:10201800bb640000150a000014220000a280000022
:1020280080c10000a2a00000ae22000030a4000081
:102038000614000089130000823000002b240000e1
:102048004801000028b400005404000001150000f5
:102058004a01000044010000222200000d22000075
:1020680040aa00002d81000028540000282200000a
:102078008a2c0000151d0000b2440000c150000069
:10208800db0300000155000011db000023060000ff
:102098004544000060cc00000d830000454000006e
:1020a8009b8800008ab00000276c0000882a000086
:1020b80080ed0000950a0000080c0000c0a5000093
:1020c8000aa80000b30200008141000015db0000ef
:1020d8000a520000888a00000085000004410000c0
:1020e8004454000088940000468500000050000019
:1020f800a485000000a00000a02500002d280000f5
:10210800aa110000205400001140000015400000f2
:1021180015000000b98b0000003000004551000098
:10212800224200000a8900004a500000a2c00000b4
:10213800da020000ad0b00005054000010510000fe
:102148002a800000b502000092200000085200001a
:102158008a80000022050000040100001404000029
:1021680040500000888800000c150000019800000d
:10217800d501000098d800000c5400006d820000c2
:10218800aac00000a2a00000a00a000016050000d6
:10219800489000000a2800000bb6000051b4000067
:1021a800a5ad00005db20000880400008081000039
:1021b800b6500000a8ad0000a06d000094a100007a
:1021c80068510000660500005b030000898200007a
:1021d8001138000022a80000b8080000a803000079
:1021e800f77e0000e8030000befb0000e4010000e9
:1021f800fbef0000ba000000efbe0000f90000008d
:102208007efb0000ee8000002a020000b0240000df
:102218000402000024440000e0ea00005294000098
:10222800a5150000294a00005146000094a50000a9
:102238002a080000164a0000020800004441000075
:102248000550000015400000ab810000aac2000044
:10225800105800003a020000c1920000d16000004e
:102268006ad00000a2800000aa01000040450000da
:102278004122000020880000023300000511000000
:1022880010290000302200002144000077d9000006
:1022980011500000551500001015000049280000d5
:1022a8002d5800000aa5000080b00000341400007a
:1022b8000607000015000000be810000462000004f
:1022c8004bb0000002030000015d0000b9400000af
:1022d800288000002edf0000223400005007000094
:1022e8006f910000128200002aed0000904000006b
:1022f8001110000051830000224900004a2a000002
:10230800088a00002502000080880000082b0000d1
:10231800680800008888000002050000011200001b
:10232800220900005223000002410000a020000002
:1023380020200000820a000080b000001410000075
:102348006048000002820000ac0a00002428000057
:1023580023210000382e0000242800003735000013
:102368004c3b0000333c0000433e0000333100008a
:10237800394700004b37000047460000454400003d
:102388002c3900003f35000043410000312c00008b
:10239800364b0000464200001f4800003f35000051
:1023a800393200003c3a0000342e00003838000072
:1023b8004b0000000010000002000000ff80000039
:1023c8000381000013a60000daf100005560000048
:1023d80005a60000def000005587000073860000a7
:1023e8006325000088000000e0250000aa6e0000b8
:1023f80040870000e26e000027870000e1680000c7
:1024080034690000186a0000706b0000006c00005e
:10241800046d00003425000064a7000020da0000e5
:10242800b8dc0000d8600000ff6e000014700000e7
:10243800ff300000001000003c7e0000ff3e00005e
:10244800001000003c210000e43e000000100000e5
:1024580076a60000def000006585000000c40000dc
:10246800ff840000522300000ac40000ff8400001b
:1024780052240000326000000ce00000a12500009a
:10248800f2360000f7100000388e000060260000c9
:10249800966e00006426000096250000f2100000e9
:1024a80014f0000007400000001100001a8000002e
:1024b800808000000680000006810000a0810000e6
:1024c8000681000006800000154000000010000092
:1024d800984000000110000098400000ff10000024
:1024e80098100000ca80000090800000068000005c
:1024f80006810000b081000006810000068000000f
:102508001540000000100000b44000000110000059
:10251800b4400000ff100000b4100000caa700007b
:1025280020da0000b86a0000706b000000da0000d2
:10253800b86e0000f3870000e26e00000487000018
:10254800e16e0000322600009680000080800000c6
:102558000680000006810000c0810000068100009e
:10256800068000001540000000100000e640000052
:1025780001100000e6400000ff100000e610000017
:102588004e80000090800000068000000681000058
:10259800d081000006810000068000001540000080
:1025a800001100000240000001110000024000007c
:1025b800ff110000021000004ea7000020dc000000
:1025c800d86c0000046d000034dc0000d86e0000f8
:1025d800cf870000e26e000020870000e16e000057
:1025e80019260000961000004e6000005a260000d0
:1025f800c425000064a7000020da0000b8dc000051
:10260800d86e000040870000e38000007080000062
:10261800e2300000001000001c8e00006026000060
:1026280096260000a6000000e0660000246700006f
:1026380014a60000dc2600000266000024670000e3
:1026480020a60000da2600000264000000650000f1
:1026580010660000016700000fa9000078d4000090
:1026680060a9000098d500006060000014260000f2
:10267800c43e000000110000d0a9000078d400007a
:1026880060a9000098d5000060740000047500007f
:10269800043400006011000052a9000078d4000042
:1026a80060a9000098d500006060000014260000b2
:1026b800c43e000000110000d0a9000078d400003a
:1026c80060a9000098d5000060760000043600007c
:1026d8002d11000072a9000078d4000060a9000044
:1026e80098d500006060000014260000c43e000079
:1026f80000110000d0a9000078d4000060a90000f3
:1027080098d5000060740000fc750000fc340000df
:102718000011000090a9000078d4000060a9000012
:1027280098d500006060000014260000c43e000038
:1027380000110000d0a9000078d4000060a90000b2
:1027480098d5000060760000fc36000001110000fa
:10275800b011000052a9000098d5000060a900003f
:10276800b8d50000606000001ef0000015f0000001
:102778000730000000110000dc1000000283000098
:10278800706e000003830000e28400008085000072
:10279800906e000001ee0000a1120000466e0000dd
:1027a80000ee0000a11200005e6e000003ee0000c3
:1027b800a1120000766e000002ee0000a1120000d7
:1027c8008e430000037500000443000000750000fc
:1027d800fc43000002740000044300000174000080
:1027e800fc8000004081000050250000d2820000db
:1027f800006e000008800000e230000000120000b7
:10280800a66e00000780000020820000e24200005f
:1028180005120000ae42000006120000c642000089
:102828000713000000250000646e0000fc8700000c
:10283800e287000031880000408900005015000040
:1028480064800000408100005071000004250000f1
:10285800d2820000006e000008800000e230000014
:102868000012000006630000037500000412000057
:10287800228000004081000050710000fc2500000b
:10288800d2820000006e000008800000e2300000e4
:10289800001200000663000000750000fc12000032
:1028a80022800000408100005070000004250000d4
:1028b800d2820000006e000008800000e2300000b4
:1028c80000120000066300000274000004120000f9
:1028d800228000004081000050700000fc250000ac
:1028e800d2820000006e000008800000e230000084
:1028f800001200000663000001740000fc120000d2
:102908002225000064d80000988e0000f000000026
:10291800ee6e0000f0800000e280000031f0000060
:1029280055a7000028d40000587600000161000077
:1029380005f000000740000000f100001812000038
:10294800386e0000f0800000e280000031f00000e6
:1029580055a7000030d4000058760000048000001d
:10296800a0810000b0250000d26e0000f0800000b9
:10297800e230000000120000e66e00000c87000044
:10298800e3800000c0810000d0250000d26e000066
:10299800f0800000e230000000120000f86e000035
:1029a80030870000e3600000fff0000018f000002e
:1029b8001512000038430000016400007443000051
:1029c80002640000001200003882000070830000da
:1029d800706e00000c820000e2800000a081000000
:1029e800b0250000d2a70000206e0000f080000093
:1029f800e23000000013000038da0000b84200009e
:102a08000c7b000004420000007b0000fc42000038
:102a1800087a000004420000047a0000fcda000092
:102a2800b8000000ee6e000080f1000007310000e1
:102a380000130000e834000000130000e8810000e3
:102a4800008300000e3f0000001300006a830000ae
:102a580090830000b54f000000130000a033000071
:102a68000013000088870000e383000080830000d3
:102a7800a54f000000130000d03300000013000031
:102a8800b8870000e3130000e8830000808300009b
:102a9800a54f000000130000d03300000013000011
:102aa800b8870000e383000090830000b54f000062
:102ab80000130000a0330000001300008887000006
:102ac800e3130000e8630000408100003241000089
:102ad80000130000e8da0000b87b000004da000008
:102ae800b86e0000f3870000e26200000c87000067
:102af80021000000ee630000108100003241000058
:102b080000130000e8da0000b87b0000fcda0000df
:102b1800b86e0000f3870000e26200000087000042
:102b280021000000ee630000208100003241000017
:102b380000130000e8da0000b87a000004da0000a8
:102b4800b86e0000f3870000e2620000088700000a
:102b580021000000ee630000808100003241000087
:102b680000130000e8da0000b87a0000fcda000080
:102b7800b86e0000f3870000e262000004870000de
:102b880021000000eec10000f080000012300000bb
:102b980000130000f86e00000c870000e3820000bc
:102ba800e313000022da0000b88000000e4f000096
:102bb8000014000006620000047a0000fc14000003
:102bc800288000000e4f0000001400001262000070
:102bd8000c7b000004140000288000000e4f000049
:102be800001400001e620000087a000004140000af
:102bf800288000000e4f000000130000f062000063
:102c0800007b0000fcda0000b86e0000f3870000cb
:102c1800e287000021000000ee82000070830000bf
:102c2800706e000030820000e2800000c081000069
:102c3800d0250000d2a70000206e0000f080000020
:102c4800e23000000014000060dc0000d842000000
:102c5800307d000004420000007d0000fc420000be
:102c6800207c000004420000107c0000fcdc000016
:102c7800d8000000ee6e000080f10000073100006f
:102c8800001500001834000000150000188100002d
:102c9800008300000e4f0000001400009283000023
:102ca80090830000d54f000000140000ca330000d4
:102cb80000140000b0870000e38300008083000058
:102cc800c54f000000140000fe330000001400008f
:102cd800e4870000e31500001883000080830000eb
:102ce800c54f000000140000fe330000001400006f
:102cf800e4870000e383000090830000d54f0000c4
:102d080000140000ca33000000140000b08700005f
:102d1800e315000018630000408100003241000004
:102d28000015000018dc0000d87d000004dc00005d
:102d3800d8870000e36e0000cf870000e262000041
:102d48003087000021000000ee63000010810000c1
:102d5800324100000015000018dc0000d87d00009a
:102d6800fcdc0000d8870000e36e0000cf8700007d
:102d7800e26200000087000021000000ee6300000e
:102d880020810000324100000015000018dc00001e
:102d9800d87c000004dc0000d8870000e36e000047
:102da800cf870000e26200002087000021000000b9
:102db800ee63000080810000324100000015000031
:102dc80018dc0000d87c0000fcdc0000d88700007c
:102dd800e36e0000cf870000e26200001087000069
:102de80021000000eec10000f08000001230000059
:102df800001500002a870000e36e000030870000fd
:102e0800e3820000e31400004adc0000d8800000e0
:102e18000e4f00000015000038620000907c000092
:102e2800fc1500005a8000000e4f0000001500003d
:102e380044620000307d0000041500005a80000044
:102e48000e4f00000015000050620000a07c00003a
:102e5800041500005a8000000e4f00000015000005
:102e680020620000007d0000fcdc0000d86e00003d
:102e78004f870000e287000021000000ee8000007c
:102e8800706e000003800000e28000000e810000e8
:102e980080810000946e000004810000e24100007f
:102ea80000700000018000000e8000000e8000000d
:102eb8000ea60000e0f000001ed80000988e00006a
:102ec800f0000000ee6e000000a7000078fe000091
:102ed8001efe00001efe00001efe00001ef3000085
:102ee80065a90000d8fe00001efe00001efe0000be
:102ef8001efe00001ef30000557e0000013e00008b
:102f0800801500008a000000ee8200002383000084
:102f1800336e00000f800000208100003025000083
:102f2800d6800000e28000000e8000000ea700009e
:102f380038f000001ed20000347200000432000095
:102f480080150000b08200002373000004430000d5
:102f580040000000ee150000b07000000471000091
:102f68000480000006800000068100000681000041
:102f7800068100000e8100000e8100000e81000015
:102f88000ea90000d8f100001ef100001ef000009c
:102f98001ef0000065000000eea60000def0000054
:102fa8006580000006f00000556000000ce000009d
:102fb800a1150000fc000000eef10000656e0000a5
:102fc80001840000438200000083000010650000b7
:102fd80010830000554f000000820000e54f0000fc
:102fe800001600002865000027820000554f0000e9
:102ff80000160000288000002081000030840000b6
:10300800e41600000cf4000030d600007a760000c8
:103018000c8400004382000000830000106500005b
:10302800e8830000554f000000820000e54f0000d3
:10303800001600005065000003820000554f000094
:10304800001600005080000020810000308400003d
:10305800e416000034f4000030d600007a76000050
:103068000c8400004382000000830000106500000b
:1030780064830000554f000000820000e54f000007
:1030880000160000708000002081000030840000dd
:10309800e41600005cf4000030d600007a760000e8
:1030a8000c840000438200000083000010650000cb
:1030b8000a830000554f0000001600008a810000b6
:1030c80030840000e41600007cf4000030d60000d4
:1030d8007a7600000cf1000030d600007a0000007b
:1030e800eea60000daf1000065810000e43f000070
:1030f8000070000001a60000daf100005500000091
:10310800eea60000daf30000658e0000008e0000d5
:10311800254f000000000000ee3e000000160000f1
:10312800be8e0000108e0000354f00000000000029
:10313800eea60000dcf1000055000000ee8e000055
:10314800e362000004f0000015e20000a116000090
:10315800d6f000000730000000160000ca0000008a
:10316800ee6e000001000000ee000000000000000c
:1031780000050000000000002263000063770000e3
:103188007f3e00001c0000001c1e00005d5d00006a
:103198006f3e00001c0000003c7e00000f0700008e
:1031a8000f7e00003c0000001c2600007f7f00000e
:1031b8007b0600001c0000001e3f00007870000025
:1031c800783f00001e0000001c3200007f7f0000d6
:1031d8006f3000001c0000001c3e00007f770000dc
:1031e80063630000220000001c3e00006f5d0000c9
:1031f8005d1e00001c0000001c3e00004977000016
:103208007f6300007f00000000000000000800004d
:10321800000000000000000000000000000800009e
:10322800080000000000000000000000000000008e
:103238000000000000000000000000000000000086
:1032480000000000000000000000000000800000f6
:103258000000000000800000800000000000000066
:103268000000000000f00000000000000000000066
:103278000000000000800000808000008000000046
:103288000000000000f00000808000008080000046
:103298008080000080f00000000000000080000036
:1032a80000000000000c00000808000008080000ea
:1032b80008080000080800000808000008080000c6
:1032c800080800000d0c00000808000008080000ad
:1032d80008080000080800000808000008080000a6
:1032e800080800000d0a000065050000050500003b
:1032f80005e5000005050000e505000005050000de
:1033080005c500000a0a0000650500000505000063
:1033180005e5000005050000e505000005050000bd
:1033280005c500000a0a0000050c00000808000096
:103338000f0500000c0d000005080000080800003b
:103348000d0500000e0f0000050c00000808000025
:103358000f0500000c0d000005080000080800001b
:103368000d0500000a0a0000050a000065060000b5
:10337800059500000a0a00003505000005c5000093
:103388000a35000005050000950a000065050000e3
:10339800059500000a0a00003505000006c5000072
:1033a8000a0500000a0a0000050f000005080000d1
:1033b80008080000080800000c0800000f050000bd
:1033c8000808000008080000080f000005080000b1
:1033d800080c000008080000080800000f0500009d
:1033e8000f0500000a0a000075050000b505000079
:1033f8000505000005c500000a65000005b50000c8
:1034080005e5000005050000e5050000b50500001c
:10341800c50a0000650500000505000005b50000a7
:1034280005d500000a0a0000050c00000808000085
:10343800080800000d0500000f0500000c0800003a
:103448000f050000080f000005080000080d000027
:10345800050f0000050c000008080000080800001f
:103468000d0500000a0f0000050f000065050000ab
:1034780005c500000a350000e59500000a65000052
:1034880005b0000005050000b5050000c50a0000ec
:1034980035e50000950a00006505000005c5000037
:1034a8000f0500000f07000074050000d508000094
:1034b8000f0500000e0f0000050800000f050000b2
:1034c8000c08000008080000080d000005080000ae
:1034d8000f050000080f0000050800000f75000028
:1034e80005d40000070a0000050a000035050000a1
:1034f80005f5000005050000b505000005d500002c
:10350800080800000d0c0000080f000075050000f9
:1035180005b5000005050000f5050000059500004b
:103528000a0500000a0a0000050800000808000053
:103538000d0500000c080000080800000d3500000b
:1035480005c500000a0a000065050000950c00008a
:1035580008080000080d0000050c0000080800001d
:103568000f0500000a0a00007505000006c50000e6
:103578000a05000008080000080800000808000004
:103588000f050000080f00000508000008080000eb
:1035980008080000080f0000050a00006506000082
:1035a80005d500000a0a0000050c00000d05000002
:1035b8000a3500000505000005050000e5050000c6
:1035c80005f5000005050000f505000005e500000b
:1035d8000505000005050000950a0000050c00001f
:1035e8000d0500000a0a0000050800000f0500008c
:1035f8000808000008080000080f0000050c00007b
:103608000d050000080f0000050c00000d05000066
:103618000808000008080000080f0000050800005e
:103628000f0500000a0a00003505000005b5000076
:10363800050500000505000005050000950a0000c5
:103648000a35000005050000950a00000a3500004b
:10365800050500000505000005050000b50500008a
:10366800059500000a080000080800000808000086
:10367800080800000808000008080000080f0000fb
:103688000808000008080000080f000008080000eb
:1036980008080000080800000808000008080000e2
:1036a800080800000f010000e002000010040000fc
:1036b800c8090000e40b0000f40b0000b409000086
:1036c800e5040000c902000013010000e700000043
:1036d8000701000083030000f0010000ff00000064
:1036e800ff0000003f0f00000010000080260000cf
:1036f800404f0000205f0000a05d0000a04f0000c8
:10370800202600004090000080cf000000c000008c
:1037180000830000001f000080ff000000fe000082
:1037280000f80000000f0000001f0000803f0000ac
:10373800c07f0000e07f0000e05f0000e04700007d
:10374800e0200000c090000080cf000000c0000012
:1037580080830000c01f000080ff000000fe000002
:1037680000f800000000000000000000e0a00000d9
:10377800a0a00000e0000000c040000040400000a1
:10378800e0000000e0200000e0800000e000000011
:10379800e0200000e0200000e0000000a0a0000001
:1037a800e020000020000000e0800000e020000091
:1037b800e000000080800000e0a00000e0000000c1
:1037c800e02000002020000020000000e0a0000011
:1037d800e0a00000e0000000e0a00000e020000001
:1037e80020000000e0a00000e0a00000a000000011
:1037f800c0a00000c0a00000c0000000e0800000e1
:1038080080800000e0000000c0a00000a0a0000030
:10381800c0000000e0800000e0800000e000000040
:10382800e0800000e0800000800000007c82000052
:10383800868a000092a20000c28200007c0000007c
:103848000818000028080000080800000808000000
:103858003e00000038440000820400000810000008
:1038680020400000fe0000003844000082020000f2
:103878003c020000824400003800000084840000fc
:10388800848400007e04000004040000040000009a
:103898007e800000808000007c02000002020000a0
:1038a800fe0000007884000080800000fc82000098
:1038b800828200007c0000007e8200000408000074
:1038c800080800000808000008000000384400004c
:1038d800828200007c8200008244000038000000e0
:1038e8003844000082820000463a000002040000ca
:1038f800380000003844000082820000fe82000088
:103908008282000082000000fc82000082820000a7
:10391800fc82000082820000fc0000003e400000a3
:103928008080000080800000804000003e00000091
:10393800f8840000828200008282000082840000f5
:10394800f8000000fe80000080800000fe8000007b
:1039580080800000fe000000fe80000080800000e3
:10396800fe80000080800000800000000000000051
:1039780000000000000000000000000020200000ff
:10398800202000002000000020000000505000000f
:10399800500000000000000000000000505000002f
:1039a800f8500000f8500000500000002078000097
:1039b800a070000028f0000020000000c0c800002f
:1039c80010200000409800001800000060900000df
:1039d800a0400000a89000006800000060200000df
:1039e800400000000000000000000000102000005f
:1039f800404000004020000010000000402000006f
:103a080010100000102000004000000000200000fe
:103a1800a8700000a820000000000000002000009e
:103a280020f8000020200000000000000000000036
:103a380000000000602000004000000000000000be
:103a480000f000000000000000000000000000007e
:103a58000000000000600000600000000008000096
:103a68001020000040800000000000007088000066
:103a780098a80000c88800007000000020600000be
:103a88002020000020200000f800000070880000be
:103a98001020000040800000f8000000f00800003e
:103aa80008f0000008080000f000000010300000d6
:103ab80050900000f810000010000000f88000008e
:103ac80080f0000008080000f0000000304000000e
:103ad80080f000008888000070000000f8080000ee
:103ae80010200000404000004000000070880000e6
:103af800887000008888000070000000708800004e
:103b080088700000080800007000000000600000d5
:103b1800600000006060000000000000006000001d
:103b2800600000006020000040000000102000003d
:103b3800408000004020000010000000000000004d
:103b4800f8000000f800000000000000402000001d
:103b580010080000102000004000000070880000dd
:103b680008100000200000002000000070880000fd
:103b780008680000a8a80000700000007088000015
:103b880088f800008888000088000000f08800009d
:103b980088f0000088880000f000000078800000ad
:103ba800808000008080000078000000f08800001d
:103bb8008888000088880000f0000000f880000075
:103bc80080f8000080800000f8000000f880000005
:103bd80080f80000808000008000000078800000ed
:103be80080b000008888000070000000888800000d
:103bf80088f8000088880000880000007020000015
:103c0800202000002020000070000000780800003c
:103c1800080800000890000060000000889000007c
:103c2800a0c00000a0900000880000008080000074
:103c38008080000080800000f800000088d8000024
:103c4800a888000088880000880000008888000094
:103c5800c8a800009888000088000000708800004c
:103c6800888800008888000070000000f088000044
:103c780088f000008080000080000000708800004c
:103c880088880000a898000078000000f0880000ec
:103c980088f00000a09000008800000078800000f4
:103ca8008070000008080000f0000000f820000004
:103cb800202000002020000020000000888800004c
:103cc800888800008888000070000000888800004c
:103cd80088880000885000002000000088880000c4
:103ce80088a80000a8d80000880000008888000084
:103cf80050200000508800008800000088880000dc
:103d0800885000002020000020000000f81000006b
:103d18002040000080800000f800000060400000a3
:103d280040400000404000006000000000800000ab
:103d380040200000100800000000000018080000e3
:103d480008080000080800001800000020500000c3
:103d580088000000000000000000000000000000d3
:103d68000000000000000000f800000040200000f3
:103d7800100000000000000000000000000000002b
:103d8800700800007888000078000000808000003b
:103d980080b00000c8880000f000000000000000ab
:103da8007080000080880000700000000808000093
:103db80008680000988800007800000000000000f3
:103dc80070880000f8800000700000003048000093
:103dd80040e00000404000004000000000000000fb
:103de8007888000088780000087000008080000053
:103df800b0c800008888000088000000002000008b
:103e0800002000002020000020000000100000001a
:103e1800301000001090000060000000808000005a
:103e280090a00000c0a000009000000060200000ea
:103e3800202000002020000070000000000000008a
:103e4800d0a80000a888000088000000000000003a
:103e5800b0c800008888000088000000000000004a
:103e680070880000888800007000000000000000d2
:103e7800f088000088f0000080800000000000004a
:103e88006890000090b0000050180000000000008a
:103e9800b0c8000080800000800000000000000022
:103ea8007080000070080000f00000004040000032
:103eb800e040000040480000300000000000000022
:103ec8008888000088980000680000000000000052
:103ed80088880000885000002000000000000000d2
:103ee80088880000a8a8000050000000000000001a
:103ef80088500000205000008800000000000000ea
:103f08008888000088780000087000000000000021
:103f1800f810000020400000f800000020400000d9
:103f280040800000404000002000000020200000e9
:103f38002020000020200000200000004020000079
:103f480020100000202000004000000000000000b9
:103f580040a800001000000000000000fcfc000069
:103f6800fcfc0000fcfc0000fcfc00004020000001
:103f780010f8000010200000400000001020000091
:103f880040f80000402000001000000020700000f1
:103f9800a8200000202000000000000000200000f1
:103fa80020200000a8700000200000000070000021
:103fb800f8f80000f870000000000000ffff0000a3
:103fc800ffff0000ffff0000ffff0000ffff0000f1
:103fd800ffff0000ffff0000ffff0000ffff0000e1
:103fe800ffff0000ffff0000ffff0000ffff0000d1
:103ff800ffff0000ffff0000ffff0000ffff0000c1
:10400800ffff0000ffff0000ffff0000ffff0000b0
:10401800ffff0000ffff0000ffff0000ffff0000a0
:10402800ffff0000ffff0000ffff0000ffff000090
:10403800ffff0000ffff0000ffff0000ffff000080
:10404800ffff0000ffff0000ffff0000ffff000070
:10405800ffff0000ffff0000ffff0000ffff000060
:10406800ffff0000ffff0000ffff0000ffff000050
:10407800ffff0000ffff0000ffff0000ffff000040
:10408800ffff0000ffff0000ffff0000ffff000030
:10409800ffff0000ffff0000ffff0000ffff000020
:1040a800ffff0000ffff0000ffff0000ffff000010
:1040b800ffff0000ffff0000ffff0000ffff000000
:1040c800ffff0000ffff0000ffff0000ffff0000f0
:1040d800ffff0000ffff0000ffff0000ffff0000e0
:1040e800ffff0000ffff0000ffff0000ffff0000d0
:1040f800ffff0000ffff0000ffff0000ffff0000c0
:10410800ffff0000ffff0000ffff0000ffff0000af
:10411800ffff0000ffff0000ffff0000ffff00009f
:10412800ffff0000ffff0000ffff0000ffff00008f
:10413800ffff0000ffff0000ffff0000ffff00007f
:10414800ffff0000ffff0000ffff0000ffff00006f
:10415800ffff0000ffff0000ffff0000ffff00005f
:10416800c1cf000099810000ffff0000ffff0000a1
:10417800ffff0000ffff0000ffff0000ffff00003f
:1041880080cf000099800000ffff0000ffff0000c3
:10419800ffff0000ffff0000ffff0000ffff00001f
:1041a8001c4f0000999c00007fff0000ffff0000eb
:1041b800ffff0000ffff0000ffff0000ffff0000ff
:1041c8003ecf0000999e00007fff0000ffff000027
:1041d800fffb0000fe7f0000ffff0000fffe000065
:1041e8007fcf0000999e0000787c00003c8700008b
:1041f800fffb0000fdbf0000ffff0000fffe000006
:104208007fcf0000999e0000703800001c0300005a
:10421800fff30000fbdf0000ffff0000fffe0000cf
:104228007fc00000199c0000631100008c7300001f
:10423800efab0000fbdf0000ffff0000fffe000007
:104248007fc0000019800000e7930000ccf3000055
:10425800f77b0000fbdf0000ffff0000fffe00000f
:104268007fcf000099810000e7f30000ccf3000045
:10427800f77b0000fbdf0000ffff0000fffe0000ef
:104288007ecf0000999f0000e7f30000ccf3000008
:10429800f77b0000fbdf0000ffff0000ffff0000ce
:1042a8003c4f0000999f0000e7930000ccf300000a
:1042b800fafb0000fbdf0000ffff0000ffff00002b
:1042c8001ccf0000999f0000e31100008cf3000050
:1042d800fafb0000fbdf0000ffff0000ffff00000b
:1042e80080cf0000999f0000f03800001cf3000008
:1042f800fafb0000fdbf0000ffff0000ffff000009
:10430800c1cf0000999f0000f87c00003cf300003a
:10431800fdfb0000de7f0000ffff0000ffff000044
:10432800ffff0000ffff0000ffff0000ffff00008d
:10433800ffff0000ffff0000ffff0000ffff00007d
:10434800ffff0000ffff0000ffff0000ffff00006d
:10435800ffff0000ffff0000ffff0000ffff00005d
:10436800ffff0000ffff0000ffff0000ffff00004d
:10437800ffff0000ffff0000ffff0000ffff00003d
:10438800ffff0000ffff0000ffff0000ffff00002d
:10439800ffff0000ffff0000ffff0000ffff00001d
:1043a800ffff0000ffff0000ffff0000ffff00000d
:1043b800ffff0000ffff0000ffff0000ffff0000fd
:1043c800ffff0000ffff0000ffff0000ffff0000ed
:1043d800ffff0000ffff0000ffff0000ffff0000dd
:1043e800ffff0000ffff0000ffff0000ffff0000cd
:1043f800ffff0000ffff0000ffff0000ffff0000bd
:10440800ffff0000ffff0000ffff0000ffff0000ac
:10441800ffff0000ffff0000ffff0000ffff00009c
:104428008fff0000fff70000f7df00003efb0000f1
:10443800f7fb0000fc3f0000ffff0000ffff00004b
:1044480077ff0000ffff0000f7de0000dd730000cb
:10445800e7fb0000fddf0000ffff0000fffe00009b
:10446800f6340000dd560000548e0000ebab00006f
:10447800e7fb00001dec00007fff0000fffe0000ce
:10448800fdd300005d350000935f0000ebbb00002a
:10449800d7fa0000edeb0000bfff0000fffe0000b0
:1044a800fdd700006b750000d75f0000dbbb000084
:1044b800d7fb0000edeb0000bfff0000fffe00008f
:1044c800fdd700006b750000d75f0000bbbb000084
:1044d800b7fb00000de800003fff0000fffe0000f2
:1044e800f5d700006b750000d75f00007bbb0000ac
:1044f80083da0000edeb0000ffff0000ffff000083
:1045080075d3000077750000975e0000fd7b000002
:10451800f7da0000eddb0000bfff0000ffff00003e
:104528008e340000f7760000574e00000efb0000a6
:10453800f7e700000c3c00007fff0000ffff0000d1
:10454800fff70000f7ff0000dfff0000ffff00009b
:10455800ffff0000ffff0000ffff0000ffff00005b
:10456800fff70000f7fd0000dfff0000ffff00007d
:10457800ffff0000ffff0000ffff0000ffff00003b
:10458800fff70000cffe00003fff0000ffff000024
:10459800ffff0000ffff0000ffff0000ffff00001b
:1045a800ffff0000ffff0000ffff0000ffff00000b
:1045b800ffff0000ffff0000ffff0000ffff0000fb
:1045c800ffff0000ffff0000ffff0000ffff0000eb
:1047b800ffff0000ffff0000ffff000000000000f7
:1047c800ff000000e06900000068000000780000b9
:1047d800016e0000386d0000006c0000006b0000e6
:1047e800006a0000642100000c200000d8210000ad
:1047f8004a4a0000001000005060000002e000007b
:10480800a11000003260000003e00000a1100000c9
:104818003a60000000e00000a11000004210000013
:10482800502100004a7c0000ff7a0000ff100000c1
:104838004c2100004a7c0000017a0000ff100000b3
:104848004c2100004a7b0000fe3a0000017a00007b
:10485800ff7a0000ff900000442100004a21000078
:104868004a200000d88e0000c46000007f8e00003f
:10487800028d0000b47b000001200000d84f00002a
:1048880001100000902100004a4a000000100000ba
:104898007060000014200000861000001a2100003b
:1048a8004a6000000a6100000490000011600000e6
:1048b80004200000862100004a60000004900000e7
:1048c80011200000861000001af0000015f000000a
:1048d800073000000010000088000000ee210000f2
:1048e8004a60000002800000b53f0000011000008f
:1048f800c060000002800000c53f000001100000f9
:10490800c0800000e0800000753f0000011000003a
:10491800c08000007070000010800000e73f0000b9
:1049280000100000c079000001a10000996100009a
:10493800006200001091000022100000c8a10000d1
:104948008d6100000062000010910000222000002c
:10495800de6000003c20000086f000000ae0000055
:10496800a1100000d0000000e010000008a1000025
:1049780068de0000d0000000ee6100000062000068
:104988000aa10000a9f9000033200000f6a10000e8
:1049980088d100002571000004a10000a9f80000da
:1049a80033200000f6000000ee63000000a10000c4
:1049b800a9f300001ef0000065f0000029d10000f6
:1049c800257100000473000001330000031000008b
:1049d800f8000000ee600000006100003fc7000022
:1049e800f863000070830000753f00000167000055
:1049f80070640000108400007483000000830000cd
:104a0800753f0000011100002e83000000830000a4
:104a1800453f000001110000404100003f710000c7
:104a2800ff4100002071000001c300000383000063
:104a38000633000000710000fe71000001900000c4
:104a48001370000001300000801100001e000000fb
:104a5800ee610000006200000063000000a1000099
:104a6800a9fa000033a10000a9f300001ef000001d
:104a780065f0000030d100002a71000008730000c2
:104a8800013300000311000054000000ee03000091
:104a9800c0060000601f0000f83f0000fc20000076
:104aa80004af0000f56c0000362c0000346f0000e5
:104ab800f6a00000053f0000fc3f0000fc120000cb
:104ac80090240000486000000cc000000620000090
:104ad8004040000080800000796f000075200000d1
:104ae80063720000617300006865000064000000e4
:104af800636f00006e67000072610000747500004b
:104b08006c610000746900006f6e000021000000f5
:104b1800000000000000000000000000000000008d
:104b2800000000000000000000000000000000007d
:104b380000000000000000002753000027200000ac
:104b4800736500006c65000063740000696f000005
:104b58006e0a0000002700004c27000020700000ab
:104b68006167000065200000707200006563000046
:104b780065640000616e0000746500000a000000b2
:104b880027520000272000007061000067650000c0
:104b98002073000075690000766100006e740000e3
:104ba800650a000000270000552700002076000055
:104bb80065720000732000006c650000206800002a
:104bc80061750000740a00000027000044270000f7
:104bd8002076000065720000732000006c650000fc
:104be80020620000617300000a0000002e700000bf
:104bf80076700000002e00005056000050000000a3
:104c0800667300005f6d00006f7500006e74000031
:104c18002829000020660000616900006c6500001a
:104c2800640000002f000000667300005f6f000042
:104c3800706500006e5f0000646900007228000063
:104c48002920000066610000696c000065640000ae
:104c5800004300005241000053480000212000009a
:104c680062610000642000006f700000636f000044
:104c7800646500000a0000006338000074650000e5
:104c88007374000000000000000000000000000035
:104c9800000000000000000000000000000000000c
:104ca80000000000000000000000000000000000fc
:104cb80000000000000000007b00000007a70000c3
:104cc80000000000736f00006b6f0000626100005d
:104cd8006e0000000000000000000000000000005e
:104ce80000000000000000000000000000000000bc
:104cf80000000000000000000000000000000000ac
:104d080000000000000e0000dd830000dc830000ce
:104d1800626c0000696e00006b7900000000000002
:104d2800000000000000000000000000000000007b
:104d3800000000000000000000000000000000006b
:104d4800000000000000000000000000000000005b
:104d5800da090000df910000de9100004c450000f8
:104d68004d000000000000000000000000000000ee
:104d7800000000000000000000000000000000002b
:104d8800000000000000000000000000000000001b
:104d9800000000000000000000000000bc0100004e
:104da800e3a30000e2a300004641000054200000f5
:104db8006472000069760000657200000a43000012
:104dc8006f70000079720000696700006874000065
:104dd8002032000030300000362d00003230000054
:104de800313200000a5200006f6c0000616e000052
:104df800642000005269000065670000656c0000cf
:104e08000a000000002000000e20000066200000bc
:104e18001820000066200000222000002c1000004e
:104e28000c600000026100001580000014200000e2
:104e380030000000ee600000176100002d800000c7
:104e48001520000030000000ee6000001561000031
:104e58000a8000001520000030000000ee900000dd
:104e680044000000ee000000e08e0000f064000046
:104e7800006500000020000042740000048000006b
:104e8800e020000042000000eea0000078f00000e2
:104e98003363000000a0000078f300001ef000005b
:104ea80065f0000029d40000557400000473000068
:104eb800013300000310000048000000eef000007d
:104ec80015f0000007300000001000005e00000030
:104ed800ee60000002e000009e1000006660000026
:104ee800022000005c60000002e00000a110000049
:104ef80072000000ee0000000000000045630000a2
:104f080068650000632000006163000063650000bd
:104f18007320000070610000727400006974000062
:104f2800696f00006e0a0000004500006368000019
:104f38006563000020610000636300006573000082
:104f4800206600006963000068690000657200005f
:104f5800730a0000004500006368000065630000f4
:104f68002061000063630000657300002072000088
:104f78006570000065720000742e00000a000000d1
:104f88004563000068650000632000006f7500003d
:104f980076650000727400002e200000666900002b
:104fa800636800002e0a000000000000756e000013
:104fb80065200000746f00007563000068650000dc
:104fc8002e2e00002e000000ff000000010d000042
:104fd8000208000007ff00000305000006ff0000ac
:104fe8000e0f0000ffff0000040900000aff000088
:104ff8000bff0000ffff00000cff0000ffff000098
:10500800ffff0000ffff0000504300003a000000cf
:10501800493a000000200000535000003a00000008
:1050280076610000725b00005d3a00000027000016
:1050380053270000206500007869000074200000f4
:105048007472000061630000652000006f72000048
:10505800206100006e790000000000000b020000d3
:105068002a0200004b0200006e02000093020000ba
:10507800ba020000e4020000100300003f03000031
:1050880070030000a4030000dc0300001704000004
:105098005504000097040000dd040000010300002f
:1050a80005070000090e0000101200001416000089
:0850b800181c00001e0000009e
:020000040000fa
:1050c0000200fa0000027800010078008002eb0084
:1050d000850f520020003200e10f50001e00360004
:1050e0009402780001002000000040008180480008
:1050f00034039000c40390000000430081804b0003
:1051000015027800230020000f81e900040001004f
:105110008002eb00e04f50000f003200ffba970012
:10512000e08f52000c003200e98f4200070032008d
:1051300070824200e60f520006003600e98f4200fe
:10514000050036008002eb00030037008002eb0010
:10515000010037008002eb00050078000080fa00b3
:10516000000006000002be006000b800e00f520020
:1051700009003200e18f5200070036000580e90087
:10518000040b90000600b800a40a9000140a9000d6
:105190000000420081804a00000006000002780002
:1051a000144078006a0342000080fb00c702dd0063
:1051b0000000d10000c0720054404000860f520031
:1051c000f9ff3a0000000600889fbe008a9fbe00db
:1051d00080047800810578001b059000e00f5500e1
:1051e0000b0032000004eb00090078006b1107008f
:1051f000e00f500001003a009b0de8000884e80031
:10520000880f5500020036008984e800f6ff370059
:1052100010c0b3004f05be004f04be0000000600e2
:10522000f0874700889fbe008a9fbe008c9fbe000b
:105230008e1f7800000578000204be000106780089
:105240009c0578001c0290000402b000140698002f
:105250001a427800fb4f420002003200e04f520039
:1052600004003a000042eb004446980010c0b3002e
:1052700093003700eb064500f4c0b3009d4f1200c9
:1052800025003a004c429000e04f520003003200eb
:10529000da4a9000854f52000700320015000900dd
:1052a000801deb00cb02b100da4a90004546980021
:1052b000c8159800d91598001a4378000682fb009b
:1052c000f403b2000402e9006d22b9008402780000
:1052d000fc83570024852a000c000900b45b780089
:1052e00010c0b300fe8f52007b0036007400370000
:1052f000de4378008782fb00eaed7a000402e800d2
:10530000860f57006d003200fe0f5200f8ff360086
:1053100010c0b3006a0037000042eb009b4f120040
:10532000050032000a0078009cff07004c42900004
:10533000804f52005400320015000900801deb0020
:10534000cb02b100c8159800d91598001a4378000f
:105350000042eb0005c2b300854f53001b00320032
:105360008a02e8008a0078008003eb000742780098
:1053700003c4b300a8c5b30002c2b30005003700e0
:105380008a8352008500780035437800824f5300ad
:105390000e00320086f57b004a48900068006000ed
:1053a0000700320011407800834f5000040036009f
:1053b000884f500002003e000642b00086f57b0098
:1053c0000442e800e84f5200edff3a0055c0b30038
:1053d0009bcf120002003a0055ceb300854d7800f5
:1053e000e803450005c2b30097cf12002200320047
:1053f0008482fb00e6c2b30086f57a008442e800ae
:105400001743780000c2b300804f53001b003200e6
:10541000690045006442420008c4b300aec5b30051
:1054200003c2b300040037008003780030437800e3
:10543000834f5300110032008580fb0086f5780011
:105440004a499000700161000700320097437800dc
:1054500088cf5300040036008ecf530002003e0078
:105460000642b00086f578008542e80084cf5200fd
:10547000edff3a0001003700844278008582fb008e
:105480000042eb0084f57a009d4678008d65980017
:105490007a004500c1100700901598007c00450077
:1054a000c4100700a0159800b115980014c0b300ef
:1054b000544698000040eb000100370010c0b300d4
:1054c0004f0778004f06be004f05be004f04be00d8
:1054d0000f01b100000006004fe397000682fb00b9
:1054e0006a427a0084f57a000502e8007c8757005a
:1054f000858545007083570083ff3700cf02b000d9
:10550000889fbe008a9fbe008c9fbe008e1f7800c1
:10551000800578000042eb00e08f5500a0003200cb
:105520001b057800e00f55009d0032005a029000e4
:10553000ea029000492edd00c726de008d067600c7
:105540004926dd006b004600e0804e001a0278001c
:105550009301200082fc2f000f0141000400010094
:105560000042eb00844f50008d00320080fc2f0081
:105570000f0040008910070000077800b0fc2f00e2
:105580000f00400085100700a0b79f002fc89700ac
:1055900080ef9f00dfc89700a1e79f00e0fc2f008d
:1055a0000f0040007d100700b0b79f0000fd2f00e6
:1055b0000f00400079100700d0b79f0030fd2f008a
:1055c0000f00400075100700f0b79f00d0fd2f00be
:1055d0000f004000771007000004be00e00f5000ed
:1055e000e08f580005003a000042eb00dfb2970060
:1055f000e08f52006a003200612cb8000042eb00dc
:105600007fb39700e00f530065003200afb0970002
:105610006108b800d0b79f00e1b79f002fe3970063
:105620000682fb0005002000ffb097000408b800c8
:10563000f0b79f0081bf9f005fb29700efb2970065
:105640000400540085805c007fb397008fbb9700f7
:1056500006015000878158008e02e900bfb3970011
:10566000453add0004824200110009000e82d80094
:105670000002780004005100e08059000fea970012
:105680000481fb0003002000b4eb07000042eb00a4
:1056900045ff2000850f5000e08f58004000360085
:1056a000ec0f4000e08f580003003e0064c0b300e0
:1056b000044d980002003700b4c0b300044d9800b8
:1056c000628345000b000900001beb006172b8000b
:1056d00004c9b9000444b800890441009805980041
:1056e000a9059800dfb397000723b8000606460017
:1056f00087864e00bc059800cd05980062004000ea
:10570000e08048000a499000460020000700200081
:10571000e64f510002003a0026002000070020005a
:1057200000bcb9000689b900080141000030b8008a
:1057300081004100d0059800e1059800fe05980021
:105740008feb97000783fb0006f3b900860d9800e6
:105750000fb897000483b900ffb09700040ab8009f
:10576000850243000406460085864e00bc0d980065
:10577000cd0d98003fb297006123b800453add0097
:10578000cb32de00850272004532dd000c0642009d
:105790008d864a009c0d9800ad0d980014c0b30092
:1057a000044078004f0778004f06be004f05be004a
:1057b0004f04be00cf02b1000000060000027800d6
:1057c0000000eb00800f52000f00320055e880000f
:1057d000808f52000c003a00a5d021000d00090076
:1057e000801aeb0054e88800a0d0210043ff070096
:1057f00000427800a0d02100e04f520002003a00a1
:105800000000eb0050e8880000000600e00f5000a8
:10581000010032000008eb00000006000002eb006f
:10582000840f500013003200848f500011003200aa
:1058300081629000f0826200848f52000d003a0075
:10584000b5e68000848f52000a003a0084cd210022
:1058500015000900311a7800c102b100b0e68800d5
:10586000043def00063def009110900041e88800f4
:1058700064cd21000400780000000600e00f500015
:10588000010032000008eb0000000600f08747002e
:10589000889fbe008a9fbe008c9fbe008e1f78002e
:1058a0000004be00020578000080eb00e00f540009
:1058b00081003200e08f54007f003200e00f55007d
:1058c0007d0032007810900088189000f0b79f009b
:1058d00081bf9f0038129000c81290000a03400058
:1058e000e0834800840f5300858f5b00040036007e
:1058f000000552000000eb00800f55006e003200e2
:1059000018027800040a9000e4b79f00981e9000e7
:10591000e08f56002f003a00a8169000e08f560046
:1059200008003a00ffb097000fba9700010072001c
:1059300000f0a7000000ea000000ea004f80de004f
:105940005d0037007fb397008fbb9700e00f5300d7
:10595000e08f5b0010003a001e0037008d007800d9
:1059600018007800d6fd070080067800e08f56000a
:10597000500032004fb09700dfb097002fb2970071
:10598000bfb297000400500085805800c0b79f0048
:10599000d1b79f00080037007fb397008fbb9700f7
:1059a000c6b79f00d7b79f00efb097006108b80057
:1059b000a0b79f00b1b79f004fb29700dfb297002a
:1059c0002fb39700bfb39700860f5200878f5a00fe
:1059d000e2ff3100efb397000707e9007fb09700bf
:1059e000000767000a06780098007800f1b79f006a
:1059f0008d0078007fb09700dafd07006fb2970046
:105a00008e0552008c8f5500010036008c05780001
:105a1000ffb29700150278000e004000e0804800b9
:105a2000140278008b01780009017800040001005d
:105a3000e04f500002003a000c0055001e003700f5
:105a40000b06560078129000881a90000b02420054
:105a5000e0824a0074149800051c98000e824500ec
:105a60006fb39700840f53000b003e008d00780049
:105a70001800780092fd070080067800e08f56003d
:105a800004003a000002eb00141c98000c005500c2
:105a9000090037000007eb001d1c9800e00f5600be
:105aa000020032008b844400cfff37000a007800e8
:105ab000010037000080eb004f0778004f06be0062
:105ac0004f05be004f04be000f01b10000000600ec
:105ad0000042eb00e00f500022003200e08f500047
:105ae0002000320070139000801b9000e14f5100a5
:105af00007003200040039000042eb00e24f510081
:105b000018003a00060037001103be0009003700f4
:105b100031024300a1824b000403be0005003700a0
:105b200030139000c013900031024300a1824b005b
:105b30000403be0030119000c01190000042eb0041
:105b4000820f5300838f5b0006003e0076109800a2
:105b5000071898000002eb00141898008688be0011
:105b600014c0b30004407800000006000002eb00ff
:105b7000840f500019003200848f5000170032004b
:105b800081629000f0826200848f52001300320024
:105b900094e38000e00f5200060032000002eb00a8
:105ba00025e58000848f52000c003a0044ca210091
:105bb0000100370024c72100e2024200150009005d
:105bc000b11a7800c102b100000a7800911090006b
:105bd000711298008002eb00051a9800040078000a
:105be00000000600e00f5000010032000008eb004a
:105bf000000006000042eb00e00f500005003200fc
:105c000020129000741098000002eb000418980015
:105c100014c0b3000440780000000600cf02b000ba
:105c2000889fbe008a9fbe008c9fbe008e1f78009a
:105c3000800678000040eb00e08f560055003200ef
:105c4000e08f5000530032009d047800090d900051
:105c5000fd1590000d1c9000880f550004003e00bb
:105c60000d007800e3ff07000040eb00490037001b
:105c70000f0278008403b10002000900001aeb0053
:105c8000150009008018eb00c102b100c1a79f00f8
:105c9000e08f550036003a00190d9000390a900047
