:020000040000fa
:080000000002040000000000f2
:020000040000fa
:10000800aa020000aa020000aa020000aa02000038
:10001800aa020000aa020000aa020000aa02000028
:10002800aa020000aa020000aa0200008c670000d1
:10003800aa020000aa020000aa02000080680000cc
:10004800aa020000aa020000aa020000aa020000f8
:10005800aa020000aa020000aa020000aa020000e8
:10006800aa020000aa020000aa020000aa020000d8
:10007800aa020000aa020000aa020000aa020000c8
:10008800aa020000aa020000aa020000e864000018
:10009800aa020000aa020000aa020000aa020000a8
:1000a800aa020000aa020000aa020000aa02000098
:1000b800aa020000aa020000aa020000aa02000088
:1000c800aa020000aa020000aa020000aa02000078
:1000d800aa020000aa020000aa020000aa02000068
:1000e800aa020000aa020000aa020000aa02000058
:1000f800aa020000aa020000aa020000aa02000048
:10010800aa020000aa020000aa020000aa02000037
:10011800aa020000aa020000aa020000aa02000027
:10012800aa020000aa020000aa020000aa02000017
:10013800aa020000aa020000aa020000aa02000007
:10014800aa020000aa020000aa020000aa020000f7
:10015800aa020000aa020000aa020000aa020000e7
:10016800aa020000aa020000aa020000aa020000d7
:10017800aa020000aa020000aa020000aa020000c7
:10018800aa020000aa020000aa020000aa020000b7
:10019800aa020000aa020000aa020000aa020000a7
:1001a800aa020000aa020000aa020000aa02000097
:1001b800aa020000aa020000aa020000aa02000087
:1001c800aa020000aa020000aa020000aa02000077
:1001d800aa020000aa020000aa020000aa02000067
:1001e800aa020000aa020000aa020000aa02000057
:0801f800aa020000aa020000a7
:020000040000fa
:10020800aa020000aa020000aa020000aa02000036
:10021800aa020000aa020000aa020000aa02000026
:10022800aa020000aa020000aa0200008c670000cf
:10023800aa020000aa020000aa02000080680000ca
:10024800aa020000aa020000aa020000aa020000f6
:10025800aa020000aa020000aa020000aa020000e6
:10026800aa020000aa020000aa020000aa020000d6
:10027800aa020000aa020000aa020000aa020000c6
:10028800aa020000aa020000aa020000e864000016
:10029800aa020000aa020000aa020000aa020000a6
:1002a800aa020000aa020000aa020000aa02000096
:1002b800aa020000aa020000aa020000aa02000086
:1002c800aa020000aa020000aa020000aa02000076
:1002d800aa020000aa020000aa020000aa02000066
:1002e800aa020000aa020000aa020000aa02000056
:1002f800aa020000aa020000aa020000aa02000046
:10030800aa020000aa020000aa020000aa02000035
:10031800aa020000aa020000aa020000aa02000025
:10032800aa020000aa020000aa020000aa02000015
:10033800aa020000aa020000aa020000aa02000005
:10034800aa020000aa020000aa020000aa020000f5
:10035800aa020000aa020000aa020000aa020000e5
:10036800aa020000aa020000aa020000aa020000d5
:10037800aa020000aa020000aa020000aa020000c5
:10038800aa020000aa020000aa020000aa020000b5
:10039800aa020000aa020000aa020000aa020000a5
:1003a800aa020000aa020000aa020000aa02000095
:1003b800aa020000aa020000aa020000aa02000085
:1003c800aa020000aa020000aa020000aa02000075
:1003d800aa020000aa020000aa020000aa02000065
:1003e800aa020000aa020000aa020000aa02000055
:0803f800aa020000aa020000a5
:020000040000fa
:100400008fd521000e7f22000e0188000000000021
:10041000000020000000e000020032000001200087
:10042000200288000c00070040a1260001002000e7
:1004300011000700000020000000e0000200320070
:100440000000020000000000f66002000000000052
:100450000040da000000fe004440a900802424008f
:100460000000e0000300320000002000a00188002e
:100470004440a80000000600910188008000780038
:100480000000eb0015003700e280400032a0b4000d
:100490009101ba00e280400032a0b4009102ba009b
:1004a000e280400032a0b4000002eb00472bde00e7
:1004b000f507b200602ce10004003a000059eb009f
:1004c0008301e900fdff3e00040037006128e100e0
:1004d000010032000082eb00040007001101ba00a5
:1004e0000200e000e8ff3a00000006003159ba00bf
:1004f0008301e9000c0032002159ba008301e900b0
:10050000080032000400e00003003a00e2804000ee
:1005100032a0b400f5ff370011d9ba008301e90019
:10052000faff3a008100e800e180400032a0b40008
:1005300000000600000000000000000000000000b5
:1005400000000000000000000000000000000000ab
:10055000000000000040da000000fe006022b80049
:10056000060220000000d0008180d2000482d20068
:100570008582d2000000a0000202520083825a004d
:10058000030031000202420083824a000000a10001
:100590000603e900f3ff3a000000060000027800bd
:1005a00002003700315a78000201e900e00f5100e3
:1005b000fcff3a000000060000027800808f500027
:1005c0000800310082824000808f52000500360012
:1005d00002024000456278000201e900fdff3a0096
:1005e00000000600e00f510003003200315a78008d
:1005f0000201e900fbff370000000600000278005e
:1006000002003700015a78000201e900e00f5100b2
:10061000fcff3a000000060015c0b30001002000f6
:1006200024d52100a0ea8800b1ea8800054a7800b4
:100630000000060024d521008042eb0094cf120078
:1006400002003a0010002000f3ff0700a0ea80003b
:10065000b1ea8000d2e62400631c240050000700a9
:1006600094032300050020000002420081824a001a
:10067000a4ea8800b5ea88000500780000f0a1002f
:1006800000000600000278000400780000027800f4
:10069000b442780081cf520003003200e0cf520014
:1006a000f9ff3a000000eb0000000600b0427800bd
:1006b00031c2520002003a00e0cf5200fbff3a0084
:1006c0000400fb000000060000027800b142780040
:1006d000055a7800e0cf5200fcff3a000000060007
:1006e000000278008042eb00b4cf1200fdff3a0018
:1006f0000080ea0000004200000006000b00370006
:1007000030427800e04f5200030032000201e9005d
:10071000b14f5200050032000480fb009542780082
:100720008582fb0005005000000006008102780071
:10073000e00f5100f2ff3a000200780000000600ce
:10074000889fbe000004be000c003700090078003e
:10075000e3ff0700890078000001780008007800b6
:10076000e6ff0700e00f50000a0032000800e80032
:100770009900fb00c3ff070000047800e00f54005d
:10078000040032000042eb00984f1200efff3a00e5
:100790000004eb00080078004f04be0000000600d3
:1007a000020ab900001bb9000200b8008100420033
:0807b000810043000000060077
:020000040000fa
:1007b80000000000ff20000029f2000075ae0000d4
:1007c8001df20000658b0000008c0000108d0000f9
:1007d80020f20000856e0000052000003dec0000be
:1007e800a110000045ed0000a11000008f4a000094
:1007f8003210000012eb0000a12000004d10000094
:100808001280000000e00000a2a60000fe650000c3
:10081800a28200004a000000127600002079000041
:10082800f6290000d995000000ee0000f10700004d
:1008380031000000103d000000ee00004a010000f9
:10084800101200006e08000010240000600a00006a
:10085800f015000060010000f0180000ade600008f
:10086800fa1e0000f5650000a1030000f165000014
:100878004e050000106f0000813500004f00000099
:1008880070ff00007aff000085300000107500003e
:100898008144000080f400007a010000f155000056
:1008a800207d0000ae310000fa330000ae310000b8
:1008b800f2650000f1290000dd950000f229000032
:1008c800d6950000a2a60000fa55000000ee000030
:1008d800202900006d0000006c000000620200008a
:1008e800f21800006140000020e500008760000069
:1008f8006180000020e5000084e0000081e0000045
:100908008164000020b700004c000000113d000089
:100918004318000010cb0000211f000010a90000a0
:100928006e000000211100004e010000211100009e
:100938002111000083e0000083230000830e0000e3
:10094800830e000000ee000020b7000043180000ee
:1009580010df000020f500007e040000211f0000c9
:100968007eff00003e00000010d5000010a9000026
:10097800a2a30000f755000010b3000020f5000006
:100988007e0500008e0e00008e0e000086e000003e
:10099800861700008606000000ee00006e000000ca
:1009a8002111000021110000211100002111000077
:1009b80000ee00006d080000a2d20000fc1e00003e
:1009c800f06500008b0000009c5000006cff0000e8
:1009d8007c0100004d000000110100007dff0000b7
:1009e8008e0e00008b0e00008ef1000000ee00005d
:1009f800431000001129000033140000112b0000df
:100a08007801000079010000a2b20000f31e000086
:100a1800d6740000760400005610000000ee0000b6
:100a2800864500007704000000ee0000a2a3000045
:100a3800f76500006a000000610a0000f115000077
:100a4800203d00006b010000ae1d0000f5650000b0
:100a580098900000122b0000e1a100001252000043
:100a6800e0a1000012560000e3a10000125a0000a5
:100a7800e4a10000125e0000e5a10000123d0000a4
:100a8800e29e0000114900004c00000011490000de
:100a98006b0000007cff0000a2ca0000d6740000b2
:100aa8007dff00004dff00006d380000ae2f0000f4
:100ab800fd1e0000f06500008a00000060080000cc
:100ac800f0150000ae230000fa1e0000f5650000d6
:100ad8004b000000220700008060000081700000c9
:100ae80080440000815400004b00000011a7000062
:100af800ae2d0000221b00004e0100001143000033
:100b0800a0280000221b00004e00000011d70000a2
:100b1800820000008310000082440000835400001b
:100b28004b00000011f90000a0280000222300005b
:100b38004e010000114300007a800000a2c20000ac
:100b4800221b000088e500002223000088e4000042
:100b5800a2ce0000d0140000fb180000d234000020
:100b68004b00000011ff00003c3900007c01000030
:100b780080a00000ae2f0000fd1e00007d010000d7
:100b88004d3900006d000000f0550000a2ca0000b9
:100b9800d67400008644000087540000d674000014
:100ba800114300008a0e00004f01000011c500002b
:100bb800a2a30000f7650000a2ca000011f100001e
:100bc800a2a30000f75500008644000087540000e7
:100bd800864400008754000085b7000084b70000f1
:100be800f555000000ee0000d01200008ef0000065
:100bf800d012000000ee0000d23200008ef000009b
:100c0800d232000000ee0000f3180000603200004d
:100c1800f0150000203d0000202900004a320000a5
:100c280010020000204d0000109100006007000035
:100c3800f0180000601e0000f0150000203d0000c4
:100c4800e59e0000114900003a000000108f0000e6
:100c580010000000206a000002110000856a0000f0
:100c680004110000856a000001110000856a000077
:100c78000311000085fd000015ff0000073f00007c
:100c88000012000064000000c1d5000061f10000fe
:100c98001e75000008350000581200006c65000041
:100ca8002883000015330000fe120000626a00006d
:100cb8000110000035fe000079990000e7c7000028
:100cc800db0e0000cdf30000366c0000db1c0000da
:100cd800cde30000366c0000db380000cdb3000027
:100ce80036670000db700000cd9b000037c00000b5
:100cf800dbe0000079810000e60700009efe0000ae
:100d08000180000006000000000f0000070200003c
:100d180002000000090700000a05000008000000a2
:100d2800fc000000040000000000000000f00000cb
:100d3800f0f00000f00000004020000000f000008b
:100d4800d0b00000f0600000f0f0000060f000009b
:100d580090900000f06e000000880000c290000033
:100d680018530000418400002a15000060e80000c4
:100d7800528c0000155100001440000089800000ca
:100d88008a440000436500002858000036d100005e
:100d980021510000914300006401000080c500005b
:100da80040220000605900008c030000b0300000b1
:100db800155d000081280000505d000081aa000038
:100dc800a0bb000000480000282e0000c0880000da
:100dd800522800002d28000082500000a52800009d
:100de80082000000c05000008c0000005c820000ff
:100df80045200000ac060000460a000095a200004d
:100e0800c152000085600000cb4a00002115000097
:100e1800288a0000b30000002942000082bb0000bd
:100e2800600a000014050000980200003c9e0000c3
:100e380083c5000020e800004c11000090980000d5
:100e4800140100000a500000260500002dad000026
:100e58000a21000030280000580d000010980000fa
:100e680014b40000694b0000150a00003016000099
:100e780006a4000056060000802000000b030000b6
:100e88006034000005810000a16b00006848000084
:100e9800c0d000000401000060710000708c0000e8
:100ea800824400006108000011180000223500008b
:100eb80041820000301a00004585000040590000ba
:100ec80080140000a1550000660000000a5a0000c6
:100ed80028cc000000b40000292200004542000090
:100ee80082c1000052940000182a0000a28c000061
:100ef8001d00000060f1000020670000890200006a
:100f0800a3b0000022c80000aec00000a80b00007b
:100f1800b4060000d1760000044a00002eca000082
:100f28008948000089460000820200001528000058
:100f3800809400002820000020a000002045000028
:100f48004078000081c400004226000002a800008a
:100f58009229000068a0000016040000a1410000ca
:100f680050150000488d0000552800002a6c00002c
:100f7800894a0000536c000088020000bb6400002e
:100f88004b44000076c8000082a4000044550000cd
:100f980000bb00000558000042110000704000002e
:100fa80028140000a20900005288000050410000e7
:100fb8000a500000401500004a8800002a8b0000f3
:100fc800234a000050500000140200008d40000029
:100fd800450200008052000094890000045400007b
:100fe80018130000046000004c11000098980000dd
:100ff800233100003046000062600000914000008c
:101008009c83000044e00000c86d000098140000b4
:1010180044360000cc090000816300003024000041
:1010280014360000cc090000450d0000b301000093
:10103800548a000040520000da2c0000062200000a
:1010480014a400004c060000940400000590000061
:10105800a140000028520000265a00005223000038
:10106800016000004c16000028be000015080000b2
:10107800dc8a0000b0340000052d000002d000001a
:10108800a5360000ca160000d402000083b600008e
:1010980052800000969600008ed90000540400008b
:1010a80028030000b65800000a5200009476000099
:1010b800ca01000012150000db2a0000208500008c
:1010c800283b00006505000012d20000957600005c
:1010d8005364000042c000009ca60000c8960000af
:1010e800d2da00003a240000303400007200000018
:1010f80091510000c803000007720000011b0000a6
:1011080000ae0000832a0000c195000044180000ca
:1011180022a00000ad1800001a8100002050000035
:10112800604a000014b500004581000020d5000089
:1011380080b00000244a00005a220000b0140000c9
:101148000a200000948a00008021000068810000c5
:1011580011140000b0550000c00a000084570000b8
:101168006364000055810000bb6700003086000002
:1011780061610000113000008c8e00000c29000015
:101188001122000050140000442900004a540000b5
:10119800111000002c9400000515000011a5000096
:1011a8002abb0000651000002941000076ca000033
:1011b8002b6d000028bb000065800000a28b00009a
:1011c800b689000000a20000ed900000088c000025
:1011d800055800002301000060d10000308e000097
:1011e800022b0000055000001422000040ac000053
:1011f800050400000154000028d100000436000056
:10120800c2890000592a000088e700000a08000087
:10121800d04000003185000028050000111c0000a6
:10122800e1400000505a00005318000052880000a6
:1012380008350000ce15000028500000285d000089
:10124800b08d0000224000000a0800008201000062
:101258001615000040bd000081c40000e031000008
:10126800380b00000160000029640000a3010000a1
:101278006d10000022a200002b3100002808000099
:101288008166000025110000115900008a02000043
:10129800a80a0000a2a300005506000080850000ef
:1012a80004440000296d000004aa00002205000083
:1012b80028ad0000a22400004603000040460000bc
:1012c80002a80000a8080000c0d800000a03000017
:1012d800038a0000030a000055000000bc02000059
:1012e800290500004041000082a100004060000084
:1012f8006a8d000001540000010a00000b40000044
:1013080040100000490a000025400000106000005d
:101318005455000014550000ab01000044ac000017
:10132800c288000008850000dbfc0000548800002b
:1013380083300000a020000080a9000013040000f2
:10134800b4100000606800003016000007120000aa
:101358000184000044400000a9880000c15000003a
:101368001608000080200000aa090000415400006f
:1013780010420000d28100005056000041a0000039
:101388000a080000285200008a2500000514000001
:10139800c883000056830000915000002ecb000047
:1013a800904000001df60000c8250000a330000092
:1013b800a08400005410000060ca0000a09b000038
:1013c800022d0000027600000406000004ed000073
:1013d800026000004ec0000082a80000113000002a
:1013e8004141000084200000820a000008440000f7
:1013f8004505000051500000a111000010510000e7
:10140800285000004a0a000049420000808100007c
:101418001214000089800000200c00001a2400002b
:101428008e800000c5e00000886000004060000079
:1014380088e0000009040000022200002ec8000015
:10144800aa0a000009b20000b0150000528e000080
:10145800d80a00002145000000d8000050510000c3
:10146800488d00005a9400004044000014400000d9
:101478001a5a000022080000511000004aa2000079
:101488000c2d000004220000e0820000ac150000d2
:1014980054be0000089400002502000045580000d2
:1014a80024440000a030000044050000005500005e
:1014b80080a50000105000000602000094420000c1
:1014c800223000001528000050040000602a0000a7
:1014d800528a000088c000005442000082230000a5
:1014e800015100001a8000008c05000045400000f2
:1014f8004489000085050000511900008140000062
:1015080028050000036700004468000054a000009c
:101518004c0b000003410000498100008f8000004f
:10152800be0000008b400000623000004550000003
:10153800602800001419000004120000275500005c
:10154800415400004014000041a60000ca250000d4
:101558000a08000020e5000012830000016900006d
:10156800b28800002a2c000005ca00002a080000e2
:1015780020d300006510000004aa0000a0e50000c8
:101588001a0500000a0f0000365000000a25000066
:1015980028830000a225000054010000e6c80000ce
:1015a80008050000a2b30000020300000252000078
:1015b8002404000050aa00008ac00000981b000004
:1015c800026000006aa0000028aa00002080000035
:1015d800a32200008020000025b40000a16a0000ba
:1015e80002080000a5040000041100004291000058
:1015f80040b600009504000040500000260400009a
:101608004404000076320000202200002ed9000099
:1016180022250000076c0000c0540000088c000060
:101628000a220000be89000040550000401000005a
:101638000898000044800000a82100004101000033
:10164800428500000a250000282b00004a020000fd
:10165800489400000142000091710000510100000f
:1016680098d20000a228000024c4000082220000b2
:1016780005990000288800009466000003640000b3
:10168800110a0000555a0000aa5400004a0200003e
:10169800a502000082a5000080d20000850000009d
:1016a80054890000148800008b050000606c00005d
:1016b8007c9e000000890000c21000004156000016
:1016c800031100002b44000014010000d841000061
:1016d8000404000001d800004ad100000aaa000052
:1016e800381800000b4100000476000002a000003a
:1016f800940100001da4000041a300004104000063
:1017080076120000b01a0000823b00000836000084
:10171800b4100000576100002a080000568200003b
:10172800ec2000008202000002b80000550800000a
:1017380088080000aa0a0000a044000040be00007b
:101748008d800000333000006551000099ad000025
:10175800c82400005e8800000ac00000a8580000e5
:101768000d15000015400000428800002c090000fb
:1017780001410000150a0000822800002a2a000002
:1017880051aa0000802a000044420000882000007e
:10179800a911000000a20000882200008941000071
:1017a8000a140000a0220000142b00006d040000a1
:1017b800044100000b02000088890000228200001a
:1017c8000830000018d00000be55000085a10000b8
:1017d8001a040000103600006624000010440000bf
:1017e800889b000064160000a01300002208000077
:1017f8000b6200004111000028c000006252000086
:101808000ad100002811000020500000a36d00003c
:10181800581a0000c090000006b50000545500009a
:10182800194400000111000000b000001404000079
:101838004405000016020000aa440000ac4800005d
:10184800a2c100001004000008b800000444000011
:101858007a220000704400001088000080a0000078
:1018680083b6000054420000a0ed00008112000081
:101878008da60000d81100000a830000b6320000cf
:10188800202500008b5800001d280000a82100001a
:1018980068800000912000005b640000604c00003c
:1018a80009600000514000008e230000a0ed0000f8
:1018b800804000001015000066100000aa230000f8
:1018c8004598000090a00000802c0000c482000011
:1018d8000884000058a100004a08000030160000e3
:1018e800ad160000a8a0000050040000a0080000e9
:1018f800828a0000882d0000112900006c06000073
:10190800850400004a0100005691000022260000cc
:10191800120b00000889000000ac000082c400001f
:1019280060910000101800001a940000284500007b
:101938004a140000a2e5000081da00000bb20000a2
:1019480084480000576100005104000001db0000da
:101958000a500000100700006c2c000083450000ae
:1019680015760000d1100000a5a00000bb200000e3
:101978002852000085db00002009000068510000a3
:101988000c8000002052000082a8000004480000db
:1019980006110000110000008e880000c2900000af
:1019a8001612000094220000b015000011810000fa
:1019b800c50400000ad60000404000005060000046
:1019c80054400000a2820000a454000054140000f7
:1019d800dbcc0000222a00008a7d0000f6fb000014
:1019e80088a9000062c20000d142000081420000c4
:1019f800805000005040000040400000418f00002f
:101a0800809e000081c50000e08800000c050000f1
:101a180022200000c06900004440000088950000b2
:101a28004451000028a00000229400001128000062
:101a3800496800008b6d000011450000404500001a
:101a48000045000010150000223500001460000059
:101a58003419000081100000545200008cc00000ae
:101a6800a9400000a2030000b5c200008294000053
:101a78004166000002240000044b00006ca0000036
:101a88001110000008880000bd0500005852000031
:101a9800115800000a820000820300000142000081
:101aa800a592000080aa00000d0a0000094a000063
:101ab80082a80000551a0000580a00008208000099
:101ac800816d000005280000050a0000a4440000fc
:101ad800a51a0000820800000a0a000082b400006b
:101ae80040100000660800000a000000ab3100004a
:101af8002ac0000099810000560a0000ed960000f7
:101b080010ed0000984c000044a80000812a000055
:101b1800c0620000208000002c060000a029000000
:101b280041450000464a00005128000022a8000054
:101b3800a054000019810000a510000066040000f0
:101b48000a83000030050000a28e0000d84a000079
:101b580002440000a9410000812000002b0200007f
:101b680068ac00000d0600000aaa0000a78d00005e
:101b780040540000150200008148000088a50000bc
:101b8800a2810000440100004b6800009110000091
:101b980011280000a820000085140000a9500000aa
:101ba80005030000648a00006c5100009166000083
:101bb80014a80000acc00000851500007650000095
:101bc80008c80000a9220000b0160000600100004b
:101bd800401c0000e4280000a0b30000022400001c
:101be8008a240000c08200000ac000005a2d0000ac
:101bf800151500000a0000008d0a000052a0000020
:101c08008885000028a2000020a8000028220000e3
:101c180000a200008a2100004428000020ad000036
:101c2800280a000080210000118100002a8000009d
:101c3800be8c000011300000100400005660000047
:101c4800502d0000409000002615000001150000ee
:101c580001260000054500001504000026040000c8
:101c68004a5800000a220000a88500002a830000c4
:101c780002880000882a000088a200008234000040
:101c88000510000005280000504500001015000050
:101c98001294000001100000110a000028a20000a0
:101ca80044440000b603000068300000151400002a
:101cb80054a00000c0900000044000001814000068
:101cc8004889000000be0000844400004222000051
:101cd8001120000010400000550a00005288000042
:101ce800250100004514000014400000a5800000f4
:101cf800d0a200002a500000516000002a0900000c
:101d08001122000036880000b622000048b000000a
:101d1800144a00000ad500004a0a00002504000001
:101d280005410000504b00004a2000005a200000e6
:101d38000c0500000141000000890000ec6500006e
:101d4800581b000032b0000046650000609100009a
:101d580070ae00008bc100001988000008b40000b4
:101d6800c40200000a020000eca90000402c000098
:101d780005760000c528000080a000002ed90000cc
:101d8800b110000004150000401000001a0d0000fa
:101d980010420000d29400002a820000085000007f
:101da8001ad1000068820000a288000002820000a8
:101db80002140000a2910000201000000a14000084
:101dc800181a0000808800000c120000232400006c
:101dd80046100000a8660000812a00009132000029
:101de800446000003411000002a90000516b00009b
:101df800b644000012ed000081040000719100005b
:101e080044040000688d00000a00000088440000b7
:101e1800c5500000be840000c4880000ccc000008b
:101e2800a80b00000159000081420000d50a0000fb
:101e380048b3000002c00000ad2a000013020000f1
:101e480085140000b4440000db280000514a00005b
:101e5800084c00000a910000115100007444000071
:101e68000a140000503000002955000004880000c2
:101e78008aa00000501800001a08000051a50000b0
:101e88002aa00000825b0000528000008aa00000a7
:101e98008021000068c00000e24000002b0800001c
:101ea80088800000bc0000008c4000005832000010
:101eb800802000008da5000004010000a350000050
:101ec80052440000051400004a22000080810000ee
:101ed800468200002008000009400000440100007c
:101ee8004a500000144000001041000042880000e1
:101ef80002000000a5a80000912b0000404000004f
:101f0800466000004228000039db00000b04000096
:101f1800660000001823000030000000c122000005
:101f2800a0ae000083c40000612a000002c10000c6
:101f3800d6020000c19400002d0600000aa500008a
:101f4800a14600000a940000028800002a800000d0
:101f58008169000012080000a0a000000ba1000089
:101f680016d90000172400004c50000015c90000c5
:101f780013c300004aac0000ce20000011b00000de
:101f8800a30900005058000052a800008d800000ee
:101f9800c52000006ab0000028900000200a000058
:101fa8005281000022080000a2d6000094b100006f
:101fb8001262000042d100005026000024100000e8
:101fc8001449000089a1000041460000cc450000ea
:101fd800a9450000015100005a140000888500003e
:101fe8000a14000028800000850a00001428000058
:101ff800811200000225000004880000806e0000a5
:1020080082440000e09100001041000056020000e8
:102018008081000040100000551b0000451400009e
:1020280011600000488200008aa00000a95a000040
:10203800142800002ed8000001140000101700001a
:102048006c80000048220000a2bb0000641500005c
:102058000a14000022a2000080800000c1a2000033
:10206800a0ae000022300000a40600001489000081
:1020780013820000302b00002448000001280000d3
:10208800b454000004010000154a00000144000097
:1020980001220000220d000022400000aa2d0000ad
:1020a8008128000054280000228a00002c15000016
:1020b8001db2000044c1000050db00000301000015
:1020c80055110000db2300000645000044600000b5
:1020d800cc0d000083450000409b0000888a00006a
:1020e800b02700006c8800002a800000ed950000f1
:1020f8000a0800000cc00000a50a0000a8b30000f0
:102108000281000041150000db0a0000528800002f
:102118008a00000085040000414400005488000043
:10212800944600008500000050a4000085000000cf
:10213800a0a00000252d000028aa00001120000002
:1021480054110000401500004015000000b90000bf
:102158008b0000003045000051220000420a0000b8
:10216800894a000050a20000c0da000002ad000059
:102178000b50000054100000512a000080b50000e8
:102188000292000020080000528a0000802200000d
:1021980005040000011400000440000050880000fd
:1021a800880c00001501000098d500000198000077
:1021b800d80c0000546d000082aa0000c0a20000e4
:1021c800a0a000000a16000005480000900a0000c0
:1021d800280b0000b6510000b4a50000ad5d00005a
:1021e800b28800000480000081b6000050a80000fa
:1021f800ada000006d940000a168000051660000c9
:10220800055b0000038900008211000038220000ed
:10221800a8b8000008a8000003f700007ee8000046
:1022280003be0000fbe4000001fb0000efba000061
:1022380000ef0000bef90000007e0000fbee000089
:10224800802a000002b000002404000002240000dc
:1022580044e00000ea52000094a50000152900009f
:102268004a51000046940000a52a00000816000004
:102278004a02000008440000410500005015000013
:1022880040ab000081aa0000c2100000583a0000cc
:1022980002c1000092d10000606a0000d0a20000d4
:1022a80080aa0000014000004541000022200000f3
:1022b80088020000330500001110000029300000da
:1022c8002221000044770000d91100005055000079
:1022d8001510000015490000282d0000580a0000bc
:1022e800a5800000b03400001406000007150000a7
:1022f80000be000081460000204b0000b002000034
:10230800030100005db9000040280000802e000095
:10231800df22000034500000076f00009112000017
:10232800822a0000ed9000004011000010510000ca
:1023380083220000494a00002a0800008a2500007c
:1023480002800000880800002b6800000888000050
:102358008802000005010000122200000952000056
:102368002302000041a0000020200000208200007d
:102378000a800000b014000010600000480200004d
:1023880082ac00000a240000282300002138000045
:102398002e24000028370000354c00003b33000095
:1023a8003c4300003e33000031390000474b000039
:1023b8003747000046450000442c0000393f000024
:1023c80035430000413100002c3600004b46000028
:1023d800421f0000483f000035390000323c000031
:1023e8003a3400002e380000384b00000302000089
:1023f80004000000010c00000000000000000000c4
:1024080000000000fc0000000400000000200000a4
:1024180000010000000000000000000000100000a3
:102428000e5b0000204100006e7400002076000062
:10243800312e0000302000005d000000ff60000029
:10244800fe61000000a8000010f100005520000007
:102458004c2100005c650000006a0000016b000070
:10246800006d0000006e000000210000683f0000c1
:1024780000110000c6450000fd100000d047000014
:10248800cc2000007a410000fb120000d04100007f
:10249800fc13000068410000fa130000e04100004e
:1024a800f91400002c60000002370000cc22000064
:1024b800c6100000266e000000a50000f2fe000015
:1024c8001e6000002ef00000557000000961000039
:1024d8007ca80000e8d10000046000000122000090
:1024e800c060000002220000c63e00001f0000007d
:1024f800fc7e0000013e0000201000004e6000003d
:102508000461000004a80000f8d0000010000000da
:10251800ee4b000000200000e67b0000ffa8000052
:1025280012f1000065a50000f2fe00001ef0000098
:10253800557e0000016200001f8e0000224100004d
:10254800fe100000a4410000ff100000ae70000063
:10255800096200007ca80000e8fd00001ed200000f
:1025680004000000ee700000076100007ca9000074
:1025780038d1000004000000ee610000004b0000ac
:1025880002610000084b000001610000104b0000d0
:102598000061000018a9000018f100001e61000089
:1025a8007c70000001d100000870000008a800003d
:1025b800e8fd00001ed1000004000000ee47000006
:1025c800cc730000fcab00005cd30000403300007b
:1025d80000730000fc33000000d3000040430000fb
:1025e800006500000010000030a8000010f1000095
:1025f8006570000002400000fe2100001af0000093
:1026080055a600001241000001a7000010f00000cc
:102618001ef1000065a8000012f1000055620000dc
:10262800f0820000174f0000001100001641000062
:10263800fe11000024410000ff11000028410000a5
:10264800fd1100002c110000588b00001000000044
:10265800ee6100000160000000a8000010f1000019
:1026680055000000ee6b00000c000000ee6b00004f
:1026780004000000ee6b000001650000fd8400000e
:1026880000740000f960000070a90000dcd00000b0
:102698004060000004220000c063000060ab00003e
:1026a8005cd300004060000002220000c06000000f
:1026b80002220000c660000001220000c060000085
:1026c80070a90000dcd0000040000000ee6b0000a4
:1026d80001000000ee660000006800002e6c00009b
:1026e80000a8000068d6000080000000ee67000027
:1026f800002200002e210000de820000c0600000e1
:1027080003e00000a12200006660000002e0000073
:10271800a12200008680000060370000cc860000ff
:10272800748100008088000094a8000068f200000e
:102738001ed0000010470000cc000000fca80000dc
:1027480068fc00001ed6000080000000ee67000054
:10275800002200002e210000de820000c060000080
:1027680003e00000a122000066470000cc670000db
:102778000460000002e00000a12200008680000042
:1027880060860000748100008088000094a8000022
:1027980068f200001ed0000010a8000068fc0000cd
:1027a8001ed6000080000000ee61000000d6000088
:1027b8008060000002220000c060000002220000c9
:1027c800c67100000131000007110000c860000058
:1027d8001e220000c6000000fd60000000e00000ae
:1027e8009e1200000c4a000000000000ee4a0000a3
:1027f80001210000fe6a000002690000fca8000038
:102808000ef000006558000000000000ee6a0000ad
:1028180000690000fe000000ee60000002220000d7
:10282800c080000080700000eca800000ef00000de
:1028380055000000ee4a0000021200002880000047
:10284800602200005298000000120000248000005e
:10285800607000000c220000529800000012000076
:1028680024000000ee6a000001000000ee6a00008b
:1028780000690000fe000000ee4a000002000000af
:10288800ee60000004490000fe60000002890000bc
:1028980000800000602200005298000000690000db
:1028a80000800000607000000c22000052980000b8
:1028b8000069000000490000046a000000000000f0
:1028c800ee8000000680000006800000e461000041
:1028d8001f80000012a50000f2f000001ef00000aa
:1028e8006581000000000000ee600000004c000060
:1028f80000600000208c0000008000006070000074
:102908001022000052800000854f000000000000e7
:10291800ee6700000446000038670000cc91000014
:1029280080120000b2000000ee600000404c000081
:1029380040600000608c00000046000000000000bd
:10294800ee80000060700000fc2200005280000051
:10295800854f000000000000ee670000fc910000b9
:1029680080120000a6000000ee8000006022000037
:1029780052800000874f000000690000fc00000042
:10298800ee800000607000000c2200005280000001
:10299800874f000000690000fc000000eef0000016
:1029a800188000000e6000000af0000015f000001a
:1029b8000730000000120000c8000000ee220000ee
:1029c800e2220000f6210000983f000000110000fc
:1029d800c623000010460000701300003c120000df
:1029e800d460000001220000c0a8000068fc0000bc
:1029f8001ed6000080760000fcd60000803600005d
:102a080000120000e2000000ee630000096400000c
:102a1800256500000460000018a900003cd00000f3
:102a28003070000014d000004070000014d0000086
:102a38003070000014d0000040000000ee43000099
:102a4800096500000443000025650000fca900009a
:102a58003c600000188100003083000054d0000062
:102a680010d000003060000040d0000010d00000fe
:102a7800306000002c8100004084000055d0000028
:102a880010d000004060000054d0000010d00000ba
:102a980040000000ee7d000004000000fca50000de
:102aa800f2fe00001e6000002af0000055700000d1
:102ab800096100007ca80000e8fd00001ed10000ac
:102ac8000460000001220000c06000000222000033
:102ad800c67e0000014e0000206e00000076000057
:102ae800fc360000001300003e1000002622000003
:102af800e22300007a2300008c210000983f0000a8
:102b080000110000c6460000701300003c130000ce
:102b18006c600000706100000f620000fe6300003e
:102b280000a8000014f3000055a900005cd00000c4
:102b380010000000eea8000014f3000065840000f7
:102b48002042000002640000fe420000fe64000013
:102b58000241000011230000cc41000021230000a5
:102b6800d48200004084000030730000204300003d
:102b78008063000000a900005cf400001e840000cf
:102b8800108100002485000000700000fcd50000c2
:102b980040a900005cf300001e35000000d00000d2
:102ba80010a8000014f300005535000000000000d4
:102bb800ee1300007a64000004420000fc64000088
:102bc800fe000000ee640000fc4200000464000007
:102bd8000244000002f4000018000000ee23000088
:102be800f0230000fc210000983f000000110000c5
:102bf800c636000070130000e21300003c630000ba
:102c0800706400000f65000000ab00007cd300007a
:102c180040000000ee800000307000000c22000030
:102c280052710000f95400001024000022800000b6
:102c380030730000fcab00007cf500001e7500003e
:102c480020d0000010ab00007cf500001e30000012
:102c580000d300004030000000000000ee13000028
:102c6800f0810000407400000460000002f00000e1
:102c780018000000ee220000e22400005c6e000054
:102c88000024000068250000483f000000110000f3
:102c9800c646000070150000d624000046600000fb
:102ca80003220000c6140000344d00000014000088
:102cb800d04d000002140000f64d0000041400007e
:102cc800a84d000006140000804d00000815000003
:102cd8002e150000406300006864000027650000ae
:102ce80000a90000dcd3000040000000ee6b0000eb
:102cf8000065000000a8000054fe00001ef000005f
:102d0800658d0000007e0000014e0000146e00007a
:102d1800004d0000081500001c000000ee640000d3
:102d28002782000050750000204500004065000023
:102d3800008000003073000004aa0000dcf20000ec
:102d48001e40000048a90000dcd0000040aa000096
:102d5800dcf500001e43000068a90000dcd3000079
:102d68004033000068000000ee14000068640000b2
:102d780027820000507500002045000040650000d3
:102d88000080000030730000fcab00001cf2000063
:102d98001e40000068a90000dcd0000040ab000025
:102da8001cf500001e43000048a90000dcd3000009
:102db8004033000048000000ee14000068a800003e
:102dc80018fb00001ef2000065a90000dcf50000f9
:102dd8001ed3000040a90000dcf200001ed0000055
:102de80010830000008400001085000020600000af
:102df8000145000020220000c07b0000033b0000ca
:102e08001e000000ee14000068a8000036fb000059
:102e18001ef2000065a90000dcf500001ed30000ca
:102e280040a90000dcf200001ed000001083000062
:102e380000840000108500002060000001450000ab
:102e480020220000c07b0000033b00001e000000a1
:102e5800ee1400006885000030750000f0ab00003b
:102e68005cd500004060000001220000c060000046
:102e780001220000c0000000ee8000005075000034
:102e8800fcab00005cd000004030000000d5000022
:102e98004030000000000000ee14000068750000db
:102ea8000135000006000000ee140000686700000d
:102eb80000250000a425000072820000c060000008
:102ec80003e00000a1250000ba60000002e0000055
:102ed800a1250000c6800000608600007481000003
:102ee8008088000094a8000068f200001ed000004e
:102ef80010a8000068fc00001ed60000800000003a
:102f0800ee60000000e000009e150000904a0000fe
:102f180000000000ee600000024a000001220000ec
:102f2800c06a000002690000fc3800001a000000b6
:102f3800ee6a000000690000fe000000ee4a000092
:102f4800021500009e4800002e1500009a0000009f
:102f5800ee6a000001000000ee6a0000006900004f
:102f6800fe000000ee4a000002000000ee600000d3
:102f780004490000fe6000000289000000480000cb
:102f88002e69000000490000046a000000000000eb
:102f9800ee600000004c000000600000208c000083
:102fa8000067000004000000ee600000404c0000d4
:102fb80040600000608c0000004600000000000037
:102fc800ee670000fc000000ee60000001f0000069
:102fd8007560000002220000c0220000c6600000e8
:102fe80004220000c0220000c66000000822000081
:102ff800c06000001e220000c6000000e0000000c3
:10300800fd000000000000000000000000000000bb
:1030180000000000000000000000000000000000a8
:103028000000000000000000000000000000000098
:103038000000000000000000000000000000000088
:10304800002a00000426000004220000041e0000dc
:10305800041a000004160000082e0000fe160000e6
:10306800081a0000041e00000422000004260000c4
:10307800042a0000102a0000fd220000032200009c
:10308800ff22000008260000102e0000fe26000087
:10309800042a0000042a0000ff2a0000062a000073
:1030a800ff2a0000062600000a260000062e00005f
:1030b800fe26000004220000041e0000031e00007b
:1030c800fd1a000004160000081a0000ff32000074
:1030d800fe2a0000062a00001c2600000426000024
:1030e800fc1e0000042e0000fe1a00000516000059
:1030f800042e0000fe26000008260000ff2600001f
:10310800ff1a00000416000008160000fd2e00003b
:103118000e160000082e0000fe160000042e000007
:10312800fe160000032e0000fe1600000416000024
:10313800fd2e0000fe260000082e0000062a0000d2
:103148000426000004220000041e0000041a0000e7
:103158000416000004320000ff320000ff320000b5
:10316800ff320000ff2e0000081e000004220000ad
:1031780004260000042a000004320000fe2e00008d
:10318800042e0000fd2a000004160000032a000097
:103198001c26000004260000fb320000fe2a000066
:1031a8000426000004220000041e0000041a000087
:1031b80004160000041a0000ff220000ff2a000085
:1031c800ff260000041e000004320000fe16000066
:1031d80003320000fe1e000003320000fe1600004d
:1031e80003160000fd320000fe1e0000033200003e
:1031f800fe160000032e0000ff2e0000ff2e000028
:10320800ff2e0000082a000004160000062e000009
:10321800042a00000426000004220000041e000006
:10322800041a00000416000008160000fa2e000018
:10323800042e0000fd220000031e0000042e0000e2
:103248000226000002160000031a000002260000f1
:1032580005260000ff2e0000061a0000031e0000cd
:10326800032200000626000004260000fd160000c8
:1032780006320000fe320000ff2e0000061a000091
:1032880003160000031e00000222000002260000b0
:10329800061a0000041e0000061e0000fd32000091
:1032a800fe2600000416000003220000031a000096
:1032b800051a0000ff16000003160000fd2e00008e
:1032c800061e0000021a0000021600000432000068
:1032d800fe1e0000041e0000fd2e0000082e000047
:1032e800ff2a000006160000041a0000011600005c
:1032f800011a000001160000011a00000116000062
:10330800011a000001160000011a00000116000051
:10331800011a000001160000011a00000116000041
:10332800011a000001160000011a00000116000031
:10333800011a000001160000011a00000116000021
:10334800011a000001160000041a0000041a000007
:10335800fd16000004320000fe320000ff2e0000bf
:10336800052a00000226000003220000021e0000b9
:10337800031a000002160000031a0000021e0000d3
:10338800ff2e0000062200000216000008160000aa
:10339800fd2e000006160000032e00000616000091
:1033a800032e000006160000032e0000061600007b
:1033b80003160000ff160000022e0000061600008b
:1033c800031e0000fe1a0000051e00000422000073
:1033d80003260000022a0000012e0000052e00002e
:1033e800ff2a0000042e0000042e0000ff22000027
:1033f800042e0000052a0000ff2e0000062e000003
:10340800ff2e0000052e0000ff2e0000052e0000f4
:10341800ff2a000004320000fe2e0000032e0000e8
:10342800fd2e0000ff1a0000041e0000fe1a000016
:10343800042e0000222e0000f900000000fe00000b
:10344800000000000000000000000000006800000c
:1034580027200000641d0000406000001560000087
:103468005c0f00008058000011a00000540f0000fd
:10347800c050000015e000004c1d0000404800004e
:1034880027200000482700000048000027200000ef
:103498004c1d00004050000015e00000540f0000d3
:1034a800c058000011a000005c0f00008060000000
:1034b80015600000641d000040680000272000001f
:1034c80068270000000000000a0800000604000049
:1034d800080200000a08000000060000080a0000b0
:1034e8000002000008040000020a000008000000b2
:1034f800110000000a7800000edd0000dbbf0000ac
:10350800ffff0000ee7a0000e0a5000050a50000d3
:103518005000000000000000000000000000000053
:103528000000000000000000000000000000000093
:10353800110000000a7800000edd0000dbbf00006b
:10354800ffff0000ee390000f0520000a852000012
:10355800a8000000000000000000000000000000bb
:1035680000000000000000000000000000880000cb
:1035780000500000007000001edb0000bbff0000d0
:10358800fd770000ff0700005e0a0000a50a0000a2
:10359800a50000000000000000000000000000007e
:1035a800000000000000000000000000008800008b
:1035b80000500000007000001edb0000bbff000090
:1035c800fd770000ff0f00009c1500004a15000061
:1035d8004a00000000000000000000000000000099
:1035e80000000000000000000000000000f00000e3
:1035f80000f0000050e00000b0e00000b0f0000073
:1036080020800000f0f0000090900000f000000022
:1036180080000000c0000000e0000000f0ff000093
:10362800f8ff0000fcff0000feff0000ffff0000a5
:10363800feff0000fcff0000f8000000f0000000a2
:10364800e0000000c00000008000000000f0000062
:1036580080b00000a0b00000a080000080f0000052
:1036680000100000a0300000a000000000f00000e2
:1036780000200000a0a00000a000000000f0000052
:1036880010d00000b0b00000d010000010200000e2
:1036980030700000f0000000000000000000000092
:1036a80000000000000000001f00000021000000d2
:1036b80031000000c10300002d7c00008d82000055
:1036c80001ff0000ff7f0000ff0000000000000075
:1036d8000000000000190000c02600002040000083
:1036e80010800000088100000840000088200000c9
:1036f8004420000042400000428000008280000018
:10370800024000000c20000070100000800f000034
:10371800000000000000000000010000e0020000be
:10372800101c000010200000084000000883000062
:103738008884000044880000024000000240000025
:1037480002800000028000000443000008240000fa
:10375800901800006000000000000000f001000068
:10376800080e000004300000024000000141000083
:10377800014200000242000004220000041100007f
:10378800021000008110000001080000020400007f
:1037980064030000980600001809000024100000c7
:1037a800c22000000140000001400000024000006b
:1037b800024000001122000021110000c110000089
:1037c800021000000408000038080000400700004c
:1037d8008000000000010000f00200000802000064
:1037e8008876000008f2000008590000f054000034
:1037f80040530000c070000060000000500000004e
:1038080048000000a4010000200a00001004000085
:103818000800000010000000000000000003000085
:10382800e004000010050000100c00001004000067
:10383800103b0000e0780000802f0000c028000046
:10384800a0280000903b00009002000080020000c9
:10385800e006000020010000f0020000080200005d
:103868008876000008f2000008590000f2540000b1
:1038780044530000f87000004000000040000000c1
:1038880040000000a0010000100a00000804000029
:103898000400000008040000000a000000110000f5
:1038a80020200000a0490000202200004015000050
:1038b800801900008042000040fc000020500000f9
:1038c8001fa80000111400001008000010000000dc
:1038d80030000000000000000004000000020000aa
:1038e80002790000058500000885000010870000a7
:1038f800e0a500001085000008790000041200000f
:1039080002040000041f000080180000801f00004f
:1039180080080000001000000020000020100000b7
:1039280050080000800500000002000000020000ae
:10393800000200000e1f0000ca2200002a4f0000eb
:103948009a1000004f1000006e1100004010000097
:10395800400f00008000000010010000f801000086
:1039680018010000f8200000204000004820000056
:103978009e100000a1080000a5070000e108000053
:10398800a1100000a1a000009e400000400000001f
:103998002000000000140000000e000020140000a9
:1039a800502d0000885500002424000082020000e9
:1039b80044010000a80100009002000040840000bb
:1039c80038f80000000800000008000000080000a7
:1039d80000180000000f00008010000040110000d7
:1039e800401000006e1000004f0f00009a02000007
:1039f8002a070000ca0a00000e1200000012000088
:103a080000050000000800008010000050200000a1
:103a180020100000000f000080100000401100007e
:103a2800401000006e1000004f0f00009a020000c6
:103a38002a070000ca0600000e0600000003000066
:103a4800000200000002000000060000000a00005a
:103a58000007000000010000f0020000080200005a
:103a68008876000008f2000008590000f0540000b1
:103a780040530000e07000005000000048000000c3
:103a880048000000a0010000100a0000080400001f
:103a98000400000008010000f00200000802000015
:103aa8008876000008f2000008590000f054000071
:103ab80040530000e070000060000000600000005b
:103ac800c00000004000000040000000600000004e
:103ad80050000000e03c0000006b000000d5000032
:103ae80040aa0000a8d5000055aa0000a8d50000eb
:103af800406b0000003c00000000000000000000d7
:103b080000000000000000000000000000000000ad
:103b1800000000000000000000070000c0180000be
:103b28003020000008400000044c0000649e0000a3
:103b3800f2960000b28c0000628000000280000053
:103b480002430000844400004420000008180000dc
:103b580030070000c000000000070000c018000087
:103b68003020000008400000c4410000e48100004b
:103b7800a28c0000c29e0000029a00001a8c00006d
:103b88002240000044400000842000008818000003
:103b980030070000c000000000070000c018000047
:103ba8003020000008460000044f0000048d00008b
:103bb800128600002280000022860000228f00006a
:103bc800124d000004460000042000000818000000
:103bd80030070000c000000000070000c018000007
:103be8003020000088400000844c0000449a000007
:103bf800229e00001a8c00000281000082830000cf
:103c080042430000c441000084200000081800005e
:103c180030070000c000000000070000c0180000c6
:103c28003020000008440000444300008480000065
:103c380002800000028c0000629a0000d29e000000
:103c4800f24c000064400000042000000818000046
:103c580030070000c000000000070000c018000086
:103c6800302200000842000004440000648800007c
:103c7800b2b00000f28000006283000002850000fc
:103c88008247000084430000042000000818000058
:103c980030070000c000000000070000c018000046
:103ca8003020000008400000c4410000649100007a
:103cb800e2880000c288000002880000c29100006b
:103cc80062410000e4400000c42000000818000021
:103cd80030070000c000000000070000c018000006
:103ce80030200000084300000447000084850000dd
:103cf800828300000280000062b00000f2880000a9
:103d0800b2440000644200000422000008180000c9
:103d180030070000c0000000426c0000696e00001f
:103d28006b79000020560000322e00003030000071
:103d38000a480000616e000073200000432e000056
:103d4800204500006765000062650000726700009a
:103d58000a4300006f700000797200006967000074
:103d6800687400002031000039390000310a000071
:103d780050610000636b00006d6100006e20000060
:103d8800636c00006f6e0000650000001002000008
:103d980000ff00008003000081130000a6da000085
:103da800f155000060050000a6de0000f055000097
:103db80087730000866300002588000000e000008b
:103dc80025aa00006e40000087e200006e27000070
:103dd80087e1000068340000691800006a7000007c
:103de8006b0000006c0400006d34000025640000c6
:103df800a7200000dab80000dcd8000060ff00004f
:103e08006e14000070ff000030000000103c00003d
:103e18007eff00003e000000103c000021e400008e
:103e28003e00000010760000a6de0000f0650000ed
:103e380085000000c4ff000084520000230a00002f
:103e4800c4ff00008452000024320000600c00000f
:103e5800e0a1000025f2000036f70000103800004d
:103e68008e600000269600006e6400002696000012
:103e780025f2000010140000f007000040000000c8
:103e8800111a0000808000008006000080060000f3
:103e980081a0000081060000810600008015000056
:103ea8004000000010980000400100001098000039
:103eb80040ff00001098000010ca00008090000029
:103ec800800600008006000081b000008106000026
:103ed80081060000801500004000000010b40000ba
:103ee8004001000010b4000040ff000010b40000c2
:103ef80010ca0000a7200000dab800006a700000ad
:103f08006b000000dab800006ef3000087e20000e2
:103f18006e04000087e100006e3200002696000063
:103f280080800000800600008006000081c000003c
:103f38008106000081060000801500004000000096
:103f480010e600004001000010e6000040ff0000fd
:103f580010e60000104e000080900000800600006f
:103f68008006000081d00000810600008106000064
:103f78008015000040000000110200004001000010
:103f88001102000040ff000011020000104e000066
:103f9800a7200000dcd800006c0400006d3400008d
:103fa800dcd800006ecf000087e200006e20000021
:103fb80087e100006e19000026960000104e0000f0
:103fc800605a000026c4000025640000a7200000f5
:103fd800dab80000dcd800006e40000087e300007b
:103fe8008070000080e2000030000000101c00001b
:103ff8008e6000002696000026a6000000e0000063
:104008006624000067140000a6dc000026020000f9
:104018006624000067200000a6da000026020000df
:10402800640000006510000066010000670f0000d2
:10403800a9780000d4600000a9980000d5600000ad
:104048006014000026c400003e00000011d00000eb
:10405800a9780000d4600000a9980000d56000008d
:104068007404000075040000346000001152000060
:10407800a9780000d4600000a9980000d56000006d
:104088006014000026c400003e00000011d00000ab
:10409800a9780000d4600000a9980000d56000004d
:1040a80076040000362d000011720000a978000087
:1040b800d4600000a9980000d560000060140000da
:1040c80026c400003e00000011d00000a9780000be
:1040d800d4600000a9980000d560000074fc0000be
:1040e80075fc00003400000011900000a978000061
:1040f800d4600000a9980000d5600000601400009a
:1041080026c400003e00000011d00000a97800007d
:10411800d4600000a9980000d560000076fc00007b
:104128003601000011b0000011520000a9980000eb
:10413800d5600000a9b80000d5600000601e00002e
:10414800f0150000f00700003000000011dc00004e
:1041580010020000837000006e03000083e200007c
:1041680084800000859000006e010000eea1000030
:10417800124600006e000000eea10000125e000072
:104188006e030000eea10000127600006e0200002f
:10419800eea10000128e0000430300007504000029
:1041a8004300000075fc0000430200007404000096
:1041b8004301000074fc00008040000081500000b2
:1041c80025d20000820000006e08000080e2000096
:1041d8003000000012a600006e07000080200000da
:1041e80082e200004205000012ae00004206000014
:1041f80012c60000420700001300000025640000fa
:104208006efc000087e20000873100008840000053
:1042180089500000156400008040000081500000b3
:104228007104000025d20000820000006e08000022
:1042380080e2000030000000120600006303000066
:104248007504000012220000804000008150000028
:1042580071fc000025d20000820000006e080000fa
:1042680080e2000030000000120600006300000039
:1042780075fc000012220000804000008150000000
:104288007004000025d20000820000006e080000c3
:1042980080e2000030000000120600006302000007
:1042a80074040000122200008040000081500000c9
:1042b80070fc000025d20000820000006e0800009b
:1042c80080e20000300000001206000063010000d8
:1042d80074fc00001222000025640000d898000039
:1042e8008ef0000000ee00006ef0000080e200009a
:1042f80080310000f0550000a7280000d4580000c5
:104308007601000061050000f00700004000000091
:10431800f1180000123800006ef0000080e2000082
:1043280080310000f0550000a7300000d45800008c
:104338007604000080a0000081b0000025d20000b3
:104348006ef0000080e200003000000012e600007d
:104358006e0c000087e3000080c0000081d00000e0
:1043680025d200006ef0000080e20000300000005e
:1043780012f800006e30000087e3000060ff0000c4
:10438800f0180000f015000012380000430100008a
:10439800647400004302000064000000123800004a
:1043a80082700000837000006e0c000082e2000042
:1043b80080a0000081b0000025d20000a7200000e6
:1043c8006ef0000080e200003000000013380000aa
:1043d800dab80000420c00007b0400004200000034
:1043e8007bfc0000420800007a0400004204000040
:1043f8007afc0000dab8000000ee00006e800000d1
:10440800f10700003100000013e80000340000004c
:1044180013e8000081000000830e00003f00000048
:10442800136a00008390000083b500004f0000006d
:1044380013a00000330000001388000087e3000089
:104448008380000083a500004f00000013d0000007
:104458003300000013b8000087e3000013e80000f1
:104468008380000083a500004f00000013d00000e7
:104478003300000013b8000087e3000083900000b9
:1044880083b500004f00000013a0000033000000b7
:104498001388000087e3000013e800006340000071
:1044a800813200004100000013e80000dab8000083
:1044b8007b040000dab800006ef3000087e2000019
:1044c800620c00008721000000ee0000631000006d
:1044d800813200004100000013e80000dab8000053
:1044e8007bfc0000dab800006ef3000087e20000f1
:1044f800620000008721000000ee00006320000039
:10450800813200004100000013e80000dab8000022
:104518007a040000dab800006ef3000087e20000b9
:10452800620800008721000000ee000063800000a0
:10453800813200004100000013e80000dab80000f2
:104548007afc0000dab800006ef3000087e2000091
:10455800620400008721000000ee0000c1f00000a6
:10456800801200003000000013f800006e0c0000fc
:1045780087e3000082e3000013220000dab800009d
:10458800800e00004f0000001406000062040000c6
:104598007afc000014280000800e00004f00000084
:1045a80014120000620c00007b04000014280000b4
:1045b800800e00004f000000141e0000620800007a
:1045c8007a04000014280000800e00004f0000004c
:1045d80013f00000620000007bfc0000dab8000065
:1045e8006ef3000087e200008721000000ee000063
:1045f80082700000837000006e30000082e20000cc
:1046080080c0000081d0000025d20000a720000053
:104618006ef0000080e2000030000000146000002e
:10462800dcd80000423000007d0400004200000099
:104638007dfc0000422000007c04000042100000c5
:104648007cfc0000dcd8000000ee00006e8000005a
:10465800f1070000310000001518000034000000c8
:104668001518000081000000830e00004f000000b4
:10467800149200008390000083d500004f000000d2
:1046880014ca00003300000014b0000087e30000e3
:104698008380000083c500004f00000014fe000066
:1046a8003300000014e4000087e300001518000040
:1046b8008380000083c500004f00000014fe000046
:1046c8003300000014e4000087e30000839000003a
:1046d80083d500004f00000014ca0000330000001a
:1046e80014b0000087e300001518000063400000c4
:1046f800813200004100000015180000dcd80000dd
:104708007d040000dcd8000087e300006ecf0000c5
:1047180087e20000623000008721000000ee000000
:1047280063100000813200004100000015180000ed
:10473800dcd800007dfc0000dcd8000087e3000026
:104748006ecf000087e200006200000087210000b1
:1047580000ee0000632000008132000041000000ec
:1047680015180000dcd800007c040000dcd800002c
:1047780087e300006ecf000087e20000622000009f
:104788008721000000ee00006380000081320000f5
:104798004100000015180000dcd800007cfc000077
:1047a800dcd8000087e300006ecf000087e200003d
:1047b800621000008721000000ee0000c1f0000038
:1047c8008012000030000000152a000087e3000076
:1047d8006e30000087e3000082e30000144a000006
:1047e800dcd80000800e00004f00000015380000e3
:1047f800629000007cfc0000155a0000800e00004a
:104808004f00000015440000623000007d040000e5
:10481800155a0000800e00004f00000015500000df
:1048280062a000007c040000155a0000800e000001
:104838004f00000015200000620000007dfc000011
:10484800dcd800006e4f000087e2000087210000de
:1048580000ee0000807000006e03000080e200009f
:10486800800e000081800000819400006e0400002a
:1048780081e200004100000070010000800e00008d
:10488800800e0000800e0000a6e00000f01e000070
:10489800d89800008ef0000000ee00006e000000c6
:1048a800a7780000fe1e0000fe1e0000fe1e00008d
:1048b800fe1e0000f3650000a9d80000fe1e0000df
:1048c800fe1e0000fe1e0000fe1e0000f355000044
:1048d8007e0100003e800000158a000000ee000006
:1048e80082230000833300006e0f00008020000048
:1048f8008130000025d6000080e20000800e000014
:10490800800e0000a7380000f01e0000d23400001e
:10491800720400003280000015b0000082230000fd
:10492800730400004340000000ee000015b00000d2
:10493800700400007104000080060000800600007a
:104948008106000081060000810e0000810e000033
:10495800810e0000810e0000a9d80000f11e0000a1
:10496800f11e0000f01e0000f065000000ee0000df
:10497800a6de0000f065000080060000f05500008b
:10498800600c0000e0a1000015fc000000ee000033
:10499800f16500006e010000844300008200000001
:1049a8008310000065100000835500004f000000d0
:1049b80082e500004f00000016280000652700006f
:1049c800825500004f0000001628000080200000db
:1049d8008130000084e40000160c0000f430000070
:1049e800d67a0000760c00008443000082000000a4
:1049f8008310000065e80000835500004f000000a8
:104a080082e500004f00000016500000650300001a
:104a1800825500004f000000165000008020000062
:104a28008130000084e4000016340000f4300000f7
:104a3800d67a0000760c0000844300008200000053
:104a48008310000065640000835500004f000000db
:104a580082e500004f000000167000008020000072
:104a68008130000084e40000165c0000f43000008f
:104a7800d67a0000760c0000844300008200000013
:104a880083100000650a0000835500004f000000f5
:104a9800168a00008130000084e40000167c0000c3
:104aa800f4300000d67a0000760c0000f1300000e7
:104ab800d67a000000ee0000a6da0000f1650000da
:104ac80081e400003f00000070010000a6da000049
:104ad800f155000000ee0000a6da0000f3650000c2
:104ae8008e0000008e2500004f00000000ee000040
:104af8003e00000016be00008e1000008e3500003b
:104b08004f00000000ee0000a6dc0000f155000098
:104b180000ee00008ee3000062040000f0150000c3
:104b2800e2a1000016d60000f007000030000000e7
:104b380016ca000000ee00006e01000000ee000042
:104b48000000000000000000050000000022000036
:104b580063630000777f00003e1c0000001c00001b
:104b68001e5d00005d6f00003e1c0000003c000060
:104b78007e0f0000070f00007e3c0000001c0000b4
:104b8800267f00007f7b0000061c0000001e00003e
:104b98003f780000707800003f1e0000001c0000f5
:104ba800327f00007f6f0000301c0000001c0000f6
:104bb8003e7f00007763000063220000001c0000b5
:104bc8003e6f00005d5d00001e1c0000001c000020
:104bd8003e490000777f0000637f0000000000006e
:104be80000000000080000000000000000000000b5
:104bf800000000000808000000000000000000009d
:104c0800000000000000000000000000000000009c
:104c1800000000000000000000000000000000008c
:104c280000000000800000000000000080800000fc
:104c3800000000000000000000000000f00000007c
:104c4800000000000000000000000000808000005c
:104c5800808000000000000000000000f0800000dc
:104c6800808000008080000080800000f00000004c
:104c78000000000080000000000000000c08000098
:104c880008080000080800000808000008080000dc
:104c98000808000008080000080d00000c080000c3
:104ca80008080000080800000808000008080000bc
:104cb8000808000008080000080d00000a65000048
:104cc8000505000005050000e505000005e50000f4
:104cd8000505000005050000c50a00000a6500007a
:104ce8000505000005050000e505000005e50000d4
:104cf8000505000005050000c50a00000a050000ba
:104d08000c080000080f0000050c00000d0500004d
:104d180008080000080d0000050e00000f0500003f
:104d28000c080000080f0000050c00000d0500002d
:104d380008080000080d0000050a00000a05000028
:104d48000a65000006050000950a00000a35000003
:104d580005050000c50a000035050000059500009e
:104d68000a65000005050000950a00000a350000e4
:104d780005060000c50a0000050a00000a05000033
:104d88000f0500000808000008080000080c0000d3
:104d9800080f0000050800000808000008080000c7
:104da8000f050000080800000c08000008080000b3
:104db800080f0000050f0000050a00000a75000032
:104dc80005b500000505000005050000c50a00003e
:104dd80065050000b5050000e505000005e50000d3
:104de80005b5000005c500000a65000005050000be
:104df80005050000b5050000d50a00000a050000f9
:104e08000c08000008080000080d0000050f00004d
:104e1800050c0000080f0000050800000f05000041
:104e2800080800000d0500000f0500000c08000030
:104e380008080000080d0000050a00000f05000022
:104e48000f65000005050000c50a000035e50000f3
:104e5800950a000065050000b005000005b50000d2
:104e680005c500000a350000e59500000a65000048
:104e780005050000c50f0000050f000007740000bd
:104e880005d50000080f0000050e00000f05000002
:104e9800080f0000050c00000808000008080000c2
:104ea8000d050000080f0000050800000f050000b0
:104eb800080f000075050000d40700000a0500006f
:104ec8000a35000005050000f505000005b50000dd
:104ed80005050000d5080000080d00000c080000ba
:104ee8000f75000005050000b505000005f5000078
:104ef80005050000950a0000050a00000a050000e3
:104f080008080000080d0000050c00000808000053
:104f1800080d000035050000c50a00000a650000fc
:104f2800059500000c080000080800000d050000a9
:104f38000c080000080f0000050a00000a750000b0
:104f480005060000c50a0000050800000808000062
:104f580008080000080f0000050800000f05000001
:104f68000808000008080000080800000f050000f5
:104f78000a65000006050000d50a00000a050000c1
:104f88000c0d0000050a00003505000005050000ad
:104f980005e5000005050000f505000005f5000021
:104fa80005050000e5050000050500000595000061
:104fb8000a0500000c0d0000050a00000a050000a3
:104fc800080f000005080000080800000808000095
:104fd8000f0500000c0d0000050800000f0500007b
:104fe8000c0d000005080000080800000808000073
:104ff8000f050000080f0000050a00000a35000030
:1050080005050000b50500000505000005050000c0
:10501800059500000a0a0000350500000595000006
:105028000a0a000035050000050500000505000016
:1050380005b5000005050000950a000008080000f5
:105048000808000008080000080800000808000018
:10505800080800000f080000080800000808000001
:105068000f080000080800000808000008080000f1
:105078000808000008080000080f000001e0000010
:105088000210000004c8000009e400000bf400004e
:105098000bb4000009e5000004c900000213000079
:1050a80001e70000000700000183000003f0000092
:1050b80001ff000000ff0000003f00000f0000009b
:1050c80010800000264000004f2000005fa0000074
:1050d8005da000004f2000002640000090800000e6
:1050e800cf000000c0000000830000001f80000007
:1050f800ff000000fe000000f80000000f000000a4
:105108001f8000003fc000007fe000007fe000003b
:105118005fe0000047e0000020c000009080000031
:10512800cf000000c080000083c000001f80000086
:10513800ff000000fe000000f80000000000000072
:105148004d6900006e650000730a00005468000095
:10515800652000006d6900006e650000687500003c
:105168006e740000657200000a4300006f70000052
:105178007972000069670000687400000a44000042
:10518800617600006964000020570000696e000025
:1051980074650000722c00002031000039390000cd
:1051a80037000000101d00004d4900004e4500006a
:1051b80053210000203100002e3000003020000074
:1051c8004279000020440000617600006964000014
:1051d80020570000494e00005445000052000000ce
:1051e800ff000000e06000000061000000620000b5
:1051f80020a3000038d0000010f200001e7100004b
:10520800103100004010000029610000007000000b
:105218001030000080100000296c000001220000fe
:10522800776000000a2200008ff300000a330000b4
:105238000210000053220000777c0000ff4c0000a1
:10524800006c000005220000773300000310000006
:1052580061220000777c0000014c0000066c000011
:105268000122000077330000041000003f80000096
:10527800c08c0000c48c0000c48c0000c48c0000ea
:10528800048c0000046a0000a28a0000c500000027
:10529800e06000002a6100001d62000005a3000014
:1052a8001ad0000015f200001e700000083000003f
:1052b8005a1000007fa70000656000000061000030
:1052c8000162000000f0000055f100001e720000ad
:1052d80001320000a21000009163000000a7000046
:1052e80065c10000ff620000a1820000153f0000b8
:1052f800011000009df100001ef000006530000064
:10530800001000009d60000001f0000055730000cf
:1053180001530000c01000009d000000e060000084
:105328000061000000a2000099d000001071000088
:105338000e31000038100000c3d0000010610000da
:10534800007000000e3000007e100000c3a20000b4
:10535800b9d00000187100000831000040100000aa
:10536800d76d0000006e0000002200005d600000a4
:105378000a2200008ff200000a320000001000002c
:10538800f92200005d7e0000ff4e0000ff6e000065
:10539800082200005d320000021100000722000010
:1053a8005d7d0000ff4d0000ff6d00001122000030
:1053b8005d32000003110000152200005d7d000031
:1053c800014d0000126d0000002200005d32000057
:1053d80001110000232200005d7e0000014e000044
:1053e800096e0000002200005d3200000c11000070
:1053f8003d220000358100000062000002810000ab
:1054080022410000021100003d61000004800000fc
:1054180013f0000055220000592200005532000008
:1054280004100000e522000035830000006200003f
:10543800028300002243000002100000e580000003
:1054480021f00000552200005d2200003583000095
:1054580000620000018300002243000001120000e6
:10546800032200003583000000620000048300006e
:1054780022430000042200005543000000220000df
:10548800596b0000004d000000110000834e000021
:1054980000110000837d0000ff7e0000ff22000055
:1054a800357d0000017e0000014e00000011000063
:1054b8008d7e0000ff220000357e0000014d0000b7
:1054c800111100009f4e0000001100009f7d000098
:1054d800017e0000ff220000357d0000ff7e0000f5
:1054e800014d000000110000a97d0000ff2200000e
:1054f800357d0000014d000011110000b37d000052
:1055080001220000357d0000ff4d00000011000061
:10551800c54e000008110000c57d0000ff7e000098
:1055280001220000357d0000017e0000ff4e0000d2
:1055380008110000cf7e000001220000357e000027
:10554800ff4d000011110000e14e0000081100009d
:10555800e17d0000017e000001220000357d000091
:10556800ff7e0000ff4b000000110000f77b0000e9
:10557800ffa20000e1800000b0800000048000006d
:105588000480000004800000b5f000001e22000026
:105598005f2200005d7a0000ff3a00000010000062
:1055a800e52200005d120000336d0000006e00006f
:1055b8000022000035610000018000001230000068
:1055c800011200002522000035610000048000005f
:1055d8001283000000400000042200005533000040
:1055e8000422000059a20000d12200005f7d0000c3
:1055f800013d000012120000076d0000007e00004f
:10560800013e0000091200000712000033a7000045
:1056180065800000e0800000048000000480000035
:105628000480000004800000e4800000e4800000a2
:10563800d4f000001ef00000658100000064000046
:1056480001810000428b000014000000eea200005f
:10565800c91200005fa20000d91200005fa200007a
:10566800c1800000d0810000e080000004800000bc
:105678000480000004800000d5810000148100002f
:105688001481000014810000e5d00000180000001b
:10569800ee600000566100002fa70000388200006d
:1056a800c0820000248200002482000024820000be
:1056b800c4720000f7f200001ed0000019000000bc
:1056c800eef0000015f000000730000000120000a6
:1056d80091000000eeff0000fcd50000a8ab000020
:1056e80054d50000a8ab000054d50000a8ab0000ba
:1056f80054ff0000fcd50000a8ab000054d5000002
:10570800a8ab000054d50000a8ab0000540000006e
:105718000000000000800000808000008080000001
:105728008080000080ff0000ffff0000ffff0000f6
:10573800ffff0000ff000000001800003c3c0000d4
:105748001800000000000000183c00007e7e0000e9
:105758003c18000000000000542a0000542a0000f1
:10576800542a00000000000076660000567600000b
:1057780076420000006600005a7a0000665e00006b
:1057880042000000467a00007a4600007a4600008f
:10579800005a00005a5a0000627a00007a0000009d
:1057a800425e0000467a00007a460000006200006f
:1057b8005e4600005a5a000066000000427a000067
:1057c800726600006e6e0000006600005a5a000003
:1057d800665a000066000000e8a80000e88800009b
:1057e8008eee00008ace00008aea0000ee880000f3
:1057f800ec280000ee110000111500001b1100003c
:1058080077520000725200005770000020200000fc
:105818002020000000000000000000000000000040
:105828000000000000fe0000003e0000001e000016
:10583800001f000000170000001700000013000000
:105848000013000000130000001100000011000008
:105858000010000000100000001000000010000000
:1058680000100000001000000010000000100000f0
:10587800001000000038000000fe000000000000da
:10588800000000000000000000000000007e000092
:1058980000180000001800000018000000180000a0
:1058a8000018000000180000001800000018000090
:1058b80000000000000000000000000000000000e0
:1058c80000000000000000000000000000000000d0
:1058d80000000000000000000000000000000000c0
:1058e80000000000000000000000000000000000b0
:1058f80000000000000000000000000000000000a0
:10590800000000000000000000000000000000008f
:10591800000000000000000000000000000000007f
:1059280000000000000f0000000f0000001e000033
:10593800001e0000001e0000803e0000803e0000a7
:10594800804e0000c04e0000c04e0000e08e0000f7
:10595800e08e0000e10e0000f10e0000710e000064
:105968007a0e00003a0e00003c0e00001c0e0000eb
:105978001c0e0000081f0000087f00000000000047
:1059880000000000000000000000000060000000af
:10599800600000007c3c000066660000666600004f
:1059a800667e00006660000066600000663c0000dd
:1059b80000000000000000000000000000000000df
:1059c80000000000001f0000001000000010000090
:1059d8000017000000110000001100000011000075
:1059e800001100000011000000110000001100006b
:1059f800001700000010000000100000001f000049
:105a0800000000000000000000000000000000008e
:105a1800000000000000000000000000000000007e
:105a280000000000cff9000003e0000001c0000002
:105a380001c0000001c0000001c0000001c000005a
:105a480001c0000001c0000001c0000001c000004a
:105a580001c0000001c0000001c0000001c000003a
:105a680001c0000001c0000001c0000001c000002a
:105a780001c0000003e00000cff9000000000000b2
:105a8800000000000000000000000000000000000e
:105a980000000000007e0000006b0000006b0000aa
:105aa800006b0000006b0000006b0000006300004a
:105ab80000000000000000000000000000000000de
